:020000040800F2
:100000000050002075380008F1360008FD36000861
:1000100003370008093700080F3700080000000008
:10002000000000000000000000000000153700087C
:1000300021370008000000002D370008393700087C
:10004000BD380008BD380008BD380008BD380008BC
:10005000BD380008BD380008BD380008BD380008AC
:10006000BD380008BD380008BD380008BD3800089C
:10007000BD380008BD380008BD380008BD3800088C
:10008000BD380008BD380008BD380008BD3800087C
:10009000BD380008BD380008BD380008BD3800086C
:1000A00045370008593700086D37000881370008C8
:1000B000BD380008BD380008BD380008BD3800084C
:1000C000BD380008BD380008BD380008BD3800083C
:1000D000BD380008BD380008BD380008BD3800082C
:1000E00095370008BD380008BD3800080000000042
:1000F0000000000000000000000000000000000000
:0C01000000000000000000005FF808F1A3
:1001100010B5054C237833B9044B13B10448AFF341
:1001200000800123237010BDD809002000000000CA
:100130008C7C000808B5034B1BB103490348AFF39F
:10014000008008BD00000000DC0900208C7C000855
:1001500081F0004102E000BF83F0004330B54FEA78
:1001600041044FEA430594EA050F08BF90EA020FE5
:100170001FBF54EA000C55EA020C7FEA645C7FEA78
:10018000655C00F0E2804FEA5454D4EB5555B8BF9B
:100190006D420CDD2C4480EA020281EA030382EA0C
:1001A000000083EA010180EA020281EA0303362D9E
:1001B00088BF30BD11F0004F4FEA01314FF4801C71
:1001C0004CEA113102D0404261EB410113F0004F83
:1001D0004FEA03334CEA133302D0524263EB43033A
:1001E00094EA050F00F0A780A4F10104D5F1200ED8
:1001F0000DDB02FA0EFC22FA05F2801841F1000133
:1002000003FA0EF2801843FA05F359410EE0A5F106
:1002100020050EF1200E012A03FA0EFC28BF4CF037
:10022000020C43FA05F3C01851EBE37101F00045ED
:1002300007D54FF0000EDCF1000C7EEB00006EEBFA
:100240000101B1F5801F1BD3B1F5001F0CD3490884
:100250005FEA30004FEA3C0C04F101044FEA4452DB
:1002600012F5800F80F09A80BCF1004F08BF5FEA62
:10027000500C50F1000041EB045141EA050130BD42
:100280005FEA4C0C404141EB0101013C28BFB1F554
:10029000801FE9D291F0000F04BF01460020B1FA9F
:1002A00081F308BF2033A3F10B03B3F120020CDA72
:1002B0000C3208DD02F1140CC2F10C0201FA0CF050
:1002C00021FA02F10CE002F11402D8BFC2F1200CB5
:1002D00001FA02F120FA0CFCDCBF41EA0C0190406B
:1002E000E41AA2BF01EB0451294330BD6FEA0404B4
:1002F0001F3C1CDA0C340EDC04F11404C4F120029F
:1003000020FA04F001FA02F340EA030021FA04F3B0
:1003100045EA030130BDC4F10C04C4F1200220FA07
:1003200002F001FA04F340EA0300294630BD21FA45
:1003300004F0294630BD94F0000F83F4801306BF0B
:1003400081F480110134013D4EE77FEA645C18BFFF
:100350007FEA655C29D094EA050F08BF90EA020F96
:1003600005D054EA000C04BF1946104630BD91EA8E
:10037000030F1EBF0021002030BD5FEA545C05D191
:100380004000494128BF41F0004130BD14F58004D0
:100390003CBF01F5801130BD01F0004545F0FE4144
:1003A00041F470014FF0000030BD7FEA645C1ABF79
:1003B000194610467FEA655C1CBF0B46024650EAB0
:1003C000013406BF52EA033591EA030F41F40021DC
:1003D00030BD00BF90F0000F04BF0021704730B562
:1003E0004FF4806404F132044FF000054FF0000137
:1003F00050E700BF90F0000F04BF0021704730B5F8
:100400004FF4806404F1320410F0004548BF4042CC
:100410004FF000013EE700BF42004FEAE2014FEA21
:1004200031014FEA02701FBF12F07F4393F07F4FFC
:1004300081F06051704732F07F4208BF704793F0FF
:100440007F4F04BF41F40021704730B54FF4607412
:1004500001F0004521F000411CE700BF50EA010215
:1004600008BF704730B54FF000050AE050EA0102BE
:1004700008BF704730B511F0004502D5404261EB2E
:1004800041014FF4806404F132045FEA915C3FF46F
:10049000D8AE4FF003025FEADC0C18BF03325FEA0C
:1004A000DC0C18BF033202EBDC02C2F1200300FABD
:1004B00003FC20FA02F001FA03FE40EA0E0021FAE2
:1004C00002F11444BDE600BF70B54FF0FF0C4CF4D0
:1004D000E06C1CEA11541DBF1CEA135594EA0C0F82
:1004E00095EA0C0F00F0DEF82C4481EA030621EABD
:1004F0004C5123EA4C5350EA013518BF52EA0335F8
:1005000041F4801143F4801338D0A0FB02CE4FF0A9
:100510000005E1FB02E506F00042E0FB03E54FF0D9
:100520000006E1FB03569CF0000F18BF4EF0010ED1
:10053000A4F1FF04B6F5007F64F5407404D25FEACD
:100540004E0E6D4146EB060642EAC62141EA555180
:100550004FEAC52040EA5E504FEACE2EB4F1FD0CC2
:1005600088BFBCF5E06F1ED8BEF1004F08BF5FEA40
:10057000500E50F1000041EB045170BD06F00046F2
:1005800046EA010140EA020081EA0301B4EB5C049F
:10059000C2BFD4EB0C0541EA045170BD41F4801197
:1005A0004FF0000E013C00F3AB8014F1360FDEBFBC
:1005B000002001F0004170BDC4F10004203C35DA98
:1005C0000C341BDC04F11404C4F1200500FA05F31B
:1005D00020FA04F001FA05F240EA020001F00042BC
:1005E00021F0004110EBD37021FA04F642EB060132
:1005F0005EEA430E08BF20EAD37070BDC4F10C045C
:10060000C4F1200500FA04F320FA05F001FA04F21F
:1006100040EA020001F0004110EBD37041F100010B
:100620005EEA430E08BF20EAD37070BDC4F1200516
:1006300000FA05F24EEA020E20FA04F301FA05F27E
:1006400043EA020321FA04F001F0004121FA04F226
:1006500020EA020000EBD3705EEA430E08BF20EAF6
:10066000D37070BD94F0000F0FD101F00046400030
:1006700041EB010111F4801F08BF013CF7D041EAB2
:10068000060195F0000F18BF704703F000465200B6
:1006900043EB030313F4801F08BF013DF7D043EA87
:1006A0000603704794EA0C0F0CEA135518BF95EA3D
:1006B0000C0F0CD050EA410618BF52EA4306D1D1C4
:1006C00081EA030101F000414FF0000070BD50EAE3
:1006D000410606BF1046194652EA430619D094EA6D
:1006E0000C0F02D150EA013613D195EA0C0F05D157
:1006F00052EA03361CBF104619460AD181EA0301AB
:1007000001F0004141F0FE4141F470014FF0000062
:1007100070BD41F0FE4141F4780170BD70B54FF0FD
:10072000FF0C4CF4E06C1CEA11541DBF1CEA13557D
:1007300094EA0C0F95EA0C0F00F0A7F8A4EB05045F
:1007400081EA030E52EA03354FEA013100F0888056
:100750004FEA03334FF0805545EA131343EA12631F
:100760004FEA022245EA111545EA10654FEA0026D4
:100770000EF000419D4208BF964244F1FD0404F58D
:10078000407402D25B084FEA3202B61A65EB0305E9
:100790005B084FEA32024FF480104FF4002CB6EBA6
:1007A000020E75EB030E22BFB61A754640EA0C0026
:1007B0005B084FEA3202B6EB020E75EB030E22BF66
:1007C000B61A754640EA5C005B084FEA3202B6EBA7
:1007D000020E75EB030E22BFB61A754640EA9C0066
:1007E0005B084FEA3202B6EB020E75EB030E22BF36
:1007F000B61A754640EADC0055EA060E18D04FEAF4
:10080000051545EA16754FEA06164FEAC30343EA93
:1008100052734FEAC2025FEA1C1CC0D111F4801F60
:100820000BD141EA00014FF000004FF0004CB6E759
:1008300011F4801F04BF01430020B4F1FD0C88BFF8
:10084000BCF5E06F3FF6AFAEB5EB030C04BFB6EB03
:10085000020C5FEA500C50F1000041EB045170BDF6
:100860000EF0004E4EEA113114EB5C04C2BFD4EB23
:100870000C0541EA045170BD41F480114FF0000EA7
:10088000013C90E645EA060E8DE60CEA135594EA23
:100890000C0F08BF95EA0C0F3FF43BAF94EA0C0F26
:1008A0000AD150EA01347FF434AF95EA0C0F7FF49B
:1008B00025AF104619462CE795EA0C0F06D152EAEF
:1008C00003353FF4FDAE1046194622E750EA4106D3
:1008D00018BF52EA43067FF4C5AE50EA41047FF4E4
:1008E0000DAF52EA43057FF4EBAE12E74FEA410247
:1008F00012F5001215D211D56FF47873B3EB625272
:1009000012D94FEAC12343F0004343EA505311F098
:10091000004F23FA02F018BF404270474FF000002A
:10092000704750EA013005D111F0004008BF6FF068
:10093000004070474FF00000704700BF844641EA16
:10094000000313F0030349D1403A23D30B6803603B
:100950004B6843608B688360CB68C3600B6903613D
:100960004B6943618B698361CB69C3610B6A036225
:100970004B6A43628B6A8362CB6AC3620B6B03630D
:100980004B6B43638B6B8363CB6BC36340304031F2
:10099000403ADBD230320BD30B6803604B684360C4
:1009A0008B688360CB68C36010301031103AF3D28B
:1009B0000C3205D351F8043B40F8043B043AF9D219
:1009C000043208D0D2071CBF11F8013B00F8013BEC
:1009D00001D30B8803806046704700BF082A13D3F9
:1009E0008B07B1D010F00303AED0C3F10403D21AC9
:1009F000DB071CBF11F8013B00F8013BA4D331F821
:100A0000023B20F8023B9FE7043AD9D3013A11F8A0
:100A1000013B00F8013BF9D20B7803704B7843702F
:100A20008B788370604670474FF0FF3C06E000BF54
:100A30004FF0010C02E000BF4FF0010C4DF804CD67
:100A40004FEA410C7FEA6C5C4FEA430C18BF7FEA27
:100A50006C5C1BD001B050EA410C0CBF52EA430C55
:100A600091EA030F02BF90EA020F0020704710F1D5
:100A7000000F91EA030F58BF994208BF90422CBF64
:100A8000D8176FEAE37040F0010070474FEA410C5D
:100A90007FEA6C5C02D150EA013C07D14FEA430C7B
:100AA0007FEA6C5CD6D152EA033CD3D05DF8040BEC
:100AB000704700BF8446104662468C46194663461E
:100AC00000E000BF01B5FFF7B7FF002848BF10F1F5
:100AD000000F01BD4DF808EDFFF7F4FF0CBF01203A
:100AE00000205DF808FB00BF4DF808EDFFF7EAFFB6
:100AF00034BF012000205DF808FB00BF4DF808ED71
:100B0000FFF7E0FF94BF012000205DF808FB00BF65
:100B10004DF808EDFFF7CEFF94BF012000205DF8EF
:100B200008FB00BF4DF808EDFFF7C4FF34BF0120FC
:100B300000205DF808FB00BF4FEA410C7FEA6C5CC7
:100B400002D150EA013C0AD14FEA430C7FEA6C5CC7
:100B500002D152EA033C02D14FF0000070474FF03F
:100B60000100704753B94AB9002908BF00281CBFCB
:100B70004FF0FF314FF0FF3000F06EB9ADF1080CCF
:100B80006DE904CE00F006F8DDF804E0DDE90223AB
:100B900004B070472DE9F047089E0D4604468E4686
:100BA000002B40F083808A42174647D9B2FA82F37D
:100BB0004BB1C3F1200105FA03FE20FA01F19F4079
:100BC00041EA0E0E9C404FEA1748BEFBF8FC1FFAA4
:100BD00087F908FB1CE20CFB09F0210C41EA0242F8
:100BE00090420AD9BA180CF1FF3180F01881904276
:100BF00040F21581ACF1020C3A44121AB2FBF8F043
:100C000008FB102200FB09F1A4B244EA0244A1420D
:100C100009D93C1900F1FF3280F00381A14240F272
:100C2000008102383C44641A002140EA0C401EB1A5
:100C30000022DC40C6E90042BDE8F08702B9FFDED1
:100C4000B2FA82F3002B4FD18D1A01214FEA124ED6
:100C50001FFA82F8B5FBFEFC0EFB1C5508FB0CF0DE
:100C6000220C42EA0545A84207D97D190CF1FF3252
:100C700002D2A84200F2E98094462D1AB5FBFEF09C
:100C80000EFB105508FB00F8A4B244EA0544A04549
:100C900007D93C1900F1FF3202D2A04500F2D980F9
:100CA0001046A4EB080440EA0C40C0E78B4208D988
:100CB000002E00F0B1800021C6E900050846BDE81D
:100CC000F087B3FA83F100294BD1AB4202D38242C1
:100CD00000F2B980841A65EB030301209E46002EC2
:100CE000AAD0C6E9004EA7E79F40C3F12002D14039
:100CF0004FEA174EB1FBFEF01FFA87F80EFB1011FA
:100D000024FA02F29D4000FB08FC2A43150C45EA38
:100D10000145AC4504FA03F409D97D1900F1FF310E
:100D200080F08F80AC4540F28C8002383D44A5EBCA
:100D30000C05B5FBFEF10EFB115C01FB08F995B249
:100D400045EA0C45A94507D97D1901F1FF3274D256
:100D5000A94572D902393D44A5EB090541EA004194
:100D600078E7C1F120078B4022FA07FC4CEA030C1C
:100D700025FA07F44FEA1C4EB4FBFEF91FFA8CF873
:100D80000EFB194420FA07F309FB08FA8D401D43B6
:100D90002B0C43EA0444A24502FA01F200FA01F3E3
:100DA00009D91CEB040409F1FF3048D2A24546D909
:100DB000A9F102096444A4EB0A04B4FBFEF00EFBA3
:100DC000104400FB08FAADB245EA0444A24508D934
:100DD0001CEB040400F1FF352DD2A2452BD90238BB
:100DE000644440EA0940A0FB0289A4EB0A044C4594
:100DF000C6464D4619D316D05EB1B3EB0E0264EB76
:100E0000050404FA07F722FA01F31F43CC40C6E9B0
:100E100000740021BDE8F087314630460CE78C466F
:100E2000EBE61046FFE64345E6D2B8EB020E69EB6F
:100E30000C050138E0E72846D3E711468CE78146E8
:100E4000B9E7084673E7084649E7ACF1020C3D44B0
:100E500013E702383C4424E7704700BF80B500AF79
:100E6000084B1B68074A43F010031360032000F08F
:100E700047F9002000F008F802F08CFB0023184628
:100E800080BD00BF0020024080B582B000AF786016
:100E9000124B1A68124B1B7819464FF47A73B3FB46
:100EA000F1F3B2FBF3F3184600F05FF90346002BB1
:100EB00001D001230EE07B680F2B0AD8002279684D
:100EC0004FF0FF3000F027F9064A7B6813600023DB
:100ED00000E0012318460837BD4680BD28000020E9
:100EE000040000200000002080B400AF054B1B78F8
:100EF0001A46054B1B681344034A136000BFBD46E6
:100F000080BC704704000020F409002080B400AFCA
:100F1000024B1B681846BD4680BC7047F409002090
:100F200080B584B000AF7860FFF7F0FFB8607B68F1
:100F3000FB60FB68B3F1FF3F05D00A4B1B781A46F4
:100F4000FB681344FB6000BFFFF7E0FF0246BB688D
:100F5000D31AFA689A42F7D800BF00BF1037BD46CF
:100F600080BD00BF0400002080B485B000AF786071
:100F70007B6803F00703FB600C4BDB68BB60BA685F
:100F80004FF6FF031340BB60FB681A02BB681343B4
:100F900043F0BF6343F40033BB60044ABB68D360D3
:100FA00000BF1437BD4680BC704700BF00ED00E0B5
:100FB00080B400AF044BDB681B0A03F0070318463C
:100FC000BD4680BC704700BF00ED00E080B483B038
:100FD00000AF0346FB7197F90730002B0BDBFB7961
:100FE00003F01F02064997F907305B09012000FA58
:100FF00002F241F8232000BF0C37BD4680BC704789
:1010000000E100E080B483B000AF03463960FB71BB
:1010100097F90730002B0ADB3B68DAB20C4997F9E5
:1010200007301201D2B20B4483F800230AE03B6878
:10103000DAB20849FB7903F00F03043B1201D2B284
:101040000B441A7600BF0C37BD4680BC704700BF0A
:1010500000E100E000ED00E080B489B000AFF8608E
:10106000B9607A60FB6803F00703FB61FB69C3F1B9
:101070000703042B28BF0423BB61FB690433062B41
:1010800002D9FB69033B00E000237B614FF0FF3294
:10109000BB6902FA03F3DA43BB681A407B699A40E2
:1010A0004FF0FF317B6901FA03F3D9437B680B40B2
:1010B000134318462437BD4680BC704780B582B0C4
:1010C00000AF78607B68013BB3F1807F01D30123DF
:1010D0000FE00A4A7B68013B53600F214FF0FF305D
:1010E000FFF790FF054B00229A60044B07221A601D
:1010F000002318460837BD4680BD00BF10E000E061
:1011000080B582B000AF78607868FFF72DFF00BF30
:101110000837BD4680BD80B586B000AF0346B960D4
:101120007A60FB7300237B61FFF742FF78617A6886
:10113000B9687869FFF790FF024697F90F301146BA
:101140001846FFF75FFF00BF1837BD4680BD80B56A
:1011500082B000AF0346FB7197F907301846FFF7DE
:1011600035FF00BF0837BD4680BD80B582B000AFF7
:1011700078607868FFF7A2FF034618460837BD4637
:1011800080BD000080B48BB000AF78603960002370
:101190007B6200233B6269E101227B6A02FA03F36E
:1011A000FB613B681B68FA691340BB61BA69FB6964
:1011B0009A4240F058813B685B689A4A93425ED0FD
:1011C000984A934275D8984A934258D0964A934287
:1011D0006FD8964A934252D0944A934269D8944A1F
:1011E00093424CD0924A934263D8924A934246D05B
:1011F000904A93425DD8122B2AD8122B59D801A2BB
:1012000052F823F07F120008591200086B120008F0
:10121000AD120008B3120008B3120008B3120008A0
:10122000B3120008B3120008B3120008B31200088A
:10123000B3120008B3120008B3120008B31200087A
:10124000B3120008B31200086112000875120008FA
:10125000794A934213D02CE03B68DB683B6229E07B
:101260003B68DB6804333B6224E03B68DB6808339F
:101270003B621FE03B68DB680C333B621AE03B6873
:101280009B68002B02D104233B6213E03B689B6800
:10129000012B05D108233B627B68FA691A6109E0DA
:1012A00008233B627B68FA695A6103E000233B62D2
:1012B00000E000BFBB69FF2B01D87B6801E07B68C1
:1012C00004337B61BB69FF2B02D87B6A9B0002E081
:1012D0007B6A083B9B003B617B691A680F213B6975
:1012E00001FA03F3DB431A40396A3B6901FA03F35D
:1012F0001A437B691A603B685B6803F08053002BDC
:1013000000F0B1804D4B9B694C4A43F0010393615F
:101310004A4B9B6903F00103BB60BB68484A7B6A88
:101320009B08023352F82330FB607B6A03F003030F
:101330009B000F2202FA03F3DB43FA681340FB60C1
:101340007B68404A934213D07B683F4A93420DD05A
:101350007B683E4A934207D07B683D4A934201D165
:10136000032306E0042304E0022302E0012300E05B
:1013700000237A6A02F0030292009340FA68134352
:10138000FB602F497B6A9B080233FA6841F82320EF
:101390003B685B6803F48033002B06D02D4B1A6842
:1013A0002C49BB6913430B6006E02A4B1A68BB69E2
:1013B000DB43284913400B603B685B6803F4003350
:1013C000002B06D0234B5A682249BB6913434B605C
:1013D00006E0204B5A68BB69DB431E4913404B6053
:1013E0003B685B6803F48013002B06D0194B9A68A6
:1013F0001849BB6913438B6006E0164B9A68BB69BA
:10140000DB43144913408B603B685B6803F40013B3
:10141000002B21D00F4BDA680E49BB691343CB6018
:1014200021E000BF00003210000031100000221047
:1014300000002110000012100000111000100240E6
:101440000000014000080140000C01400010014074
:1014500000140140000401400B4BDA68BB69DB4318
:1014600009491340CB607B6A01337B623B681A6891
:101470007B6A22FA03F3002B7FF48EAE00BF00BF1D
:101480002C37BD4680BC70470004014080B485B055
:1014900000AF78600B467B807B689A687B8813403E
:1014A000002B02D00123FB7301E00023FB73FB7BC5
:1014B00018461437BD4680BC704780B483B000AF77
:1014C00078600B467B8013467B707B78002B03D0C3
:1014D0007A887B681A6103E07B881A047B681A614A
:1014E00000BF0C37BD4680BC7047000080B582B09D
:1014F00000AF0346FB80084B5A69FB881340002B62
:1015000006D0054AFB885361FB88184601F0C2F9F2
:1015100000BF0837BD4680BD0004014080B586B0DD
:1015200000AF78607B68002B01D101236CE27B68FF
:101530001B6803F00103002B00F08780924B5B686F
:1015400003F00C03042B0CD08F4B5B6803F00C03EF
:10155000082B12D18C4B5B6803F48033B3F5803FCA
:101560000BD1894B1B6803F40033002B6CD07B68D4
:101570005B68002B68D1012346E27B685B68B3F5AA
:10158000803F06D1804B1B687F4A43F48033136051
:101590002EE07B685B68002B0CD17B4B1B687A4A82
:1015A00023F480331360784B1B68774A23F480233D
:1015B00013601DE07B685B68B3F5A02F0CD1724B04
:1015C0001B68714A43F4802313606F4B1B686E4A9B
:1015D00043F4803313600BE06B4B1B686A4A23F4BF
:1015E00080331360684B1B68674A23F480231360C1
:1015F0007B685B68002B13D0FFF788FC386108E03C
:10160000FFF784FC02463B69D31A642B01D90323FC
:10161000FAE15D4B1B6803F40033002BF0D014E0BB
:10162000FFF774FC386108E0FFF770FC02463B6985
:10163000D31A642B01D90323E6E1534B1B6803F44F
:101640000033002BF0D100E000BF7B681B6803F083
:101650000203002B63D04C4B5B6803F00C03002BA0
:101660000BD0494B5B6803F00C03082B1CD1464B95
:101670005B6803F48033002B16D1434B1B6803F0E7
:101680000203002B05D07B681B69012B01D00123CD
:10169000BAE13D4B1B6823F0F8027B685B69DB0015
:1016A000394913430B603AE07B681B69002B20D05B
:1016B000364B01221A60FFF729FC386108E0FFF77A
:1016C00025FC02463B69D31A022B01D903239BE177
:1016D0002D4B1B6803F00203002BF0D02A4B1B6834
:1016E00023F0F8027B685B69DB00274913430B603A
:1016F00015E0264B00221A60FFF708FC386108E06D
:10170000FFF704FC02463B69D31A022B01D90323DD
:101710007AE11D4B1B6803F00203002BF0D17B68BC
:101720001B6803F00803002B3AD07B689B69002BF1
:1017300019D0174B01221A60FFF7E8FB386108E067
:10174000FFF7E4FB02463B69D31A022B01D90323BE
:101750005AE10D4B5B6A03F00203002BF0D001202D
:1017600000F0A6FA1CE00A4B00221A60FFF7CEFB3D
:1017700038610FE0FFF7CAFB02463B69D31A022B20
:1017800008D9032340E100BF00100240000042429C
:10179000800442429E4B5B6A03F00203002BE9D1B6
:1017A0007B681B6803F00403002B00F0A680002375
:1017B000FB75974BDB6903F08053002B0DD1944BE5
:1017C000DB69934A43F08053D361914BDB6903F0AB
:1017D0008053BB60BB680123FB758E4B1B6803F411
:1017E0008073002B18D18B4B1B688A4A43F480739B
:1017F0001360FFF78BFB386108E0FFF787FB0246B9
:101800003B69D31A642B01D90323FDE0814B1B688C
:1018100003F48073002BF0D07B68DB68012B06D1CA
:101820007B4B1B6A7A4A43F0010313622DE07B680D
:10183000DB68002B0CD1764B1B6A754A23F0010341
:101840001362734B1B6A724A23F0040313621CE099
:101850007B68DB68052B0CD16D4B1B6A6C4A43F02F
:10186000040313626A4B1B6A694A43F00103136263
:101870000BE0674B1B6A664A23F001031362644B5B
:101880001B6A634A23F0040313627B68DB68002B46
:1018900015D0FFF73BFB38610AE0FFF737FB024644
:1018A0003B69D31A41F28832934201D90323ABE05A
:1018B000574B1B6A03F00203002BEED014E0FFF736
:1018C00025FB38610AE0FFF721FB02463B69D31A8A
:1018D00041F28832934201D9032395E04C4B1B6AB5
:1018E00003F00203002BEED1FB7D012B05D1484B09
:1018F000DB69474A23F08053D3617B68DB69002BA7
:1019000000F08180424B5B6803F00C03082B61D030
:101910007B68DB69022B46D13F4B00221A60FFF740
:10192000F5FA386108E0FFF7F1FA02463B69D31A8D
:10193000022B01D9032367E0354B1B6803F00073CA
:10194000002BF0D17B681B6AB3F5803F08D1304B88
:101950005B6823F400327B689B682D4913434B601E
:101960002B4B5B6823F474127B68196A7B685B6A93
:101970000B43274913434B60274B01221A60FFF7A3
:10198000C5FA386108E0FFF7C1FA02463B69D31A8D
:10199000022B01D9032337E01D4B1B6803F00073B2
:1019A000002BF0D02FE01C4B00221A60FFF7AEFA9C
:1019B000386108E0FFF7AAFA02463B69D31A022B06
:1019C00001D9032320E0124B1B6803F00073002BA6
:1019D000F0D118E07B68DB69012B01D1012313E012
:1019E0000B4B5B68FB60FB6803F480327B681B6A0F
:1019F0009A4206D1FB6803F470127B685B6A9A42D4
:101A000001D0012300E0002318461837BD4680BDF1
:101A100000100240007000406000424280B584B077
:101A200000AF786039607B68002B01D10123D0E0E2
:101A30006A4B1B6803F007033A689A4210D9674B58
:101A40001B6823F0070265493B6813430B60634B37
:101A50001B6803F007033A689A4201D00123B8E0FB
:101A60007B681B6803F00203002B20D07B681B6897
:101A700003F00403002B05D0594B5B68584A43F42C
:101A8000E06353607B681B6803F00803002B05D0FC
:101A9000534B5B68524A43F460535360504B5B684E
:101AA00023F0F0027B689B684D4913434B607B68D1
:101AB0001B6803F00103002B40D07B685B68012B9F
:101AC00007D1474B1B6803F40033002B15D10123CA
:101AD0007FE07B685B68022B07D1414B1B6803F0FA
:101AE0000073002B09D1012373E03D4B1B6803F009
:101AF0000203002B01D101236BE0394B5B6823F01B
:101B000003027B685B68364913434B60FFF7FEF9BD
:101B1000F8600AE0FFF7FAF90246FB68D31A41F2CF
:101B20008832934201D9032353E02D4B5B6803F0C5
:101B30000C027B685B689B009A42EBD1274B1B68C9
:101B400003F007033A689A4210D2244B1B6823F033
:101B5000070222493B6813430B60204B1B6803F0CC
:101B600007033A689A4201D0012332E07B681B6880
:101B700003F00403002B08D0194B5B6823F4E062E8
:101B80007B68DB68164913434B607B681B6803F076
:101B90000803002B09D0124B5B6823F460527B686A
:101BA0001B69DB000E4913434B6000F021F802462D
:101BB0000B4B5B681B0903F00F030A49CB5C22FA4D
:101BC00003F3094A1360094B1B681846FFF75CF9D9
:101BD000002318461037BD4680BD00BF00200240DC
:101BE00000100240DC9700082800002000000020C0
:101BF00090B48AB000AF2A4B3C1D0FCB84E80F0095
:101C000040F201233B800023FB610023BB610023E2
:101C10007B6200237B6100233B62224B5B68FB619C
:101C2000FB6903F00C03042B02D0082B03D02DE03A
:101C30001D4B3B622DE0FB699B0C03F00F0307F18A
:101C40002802134413F8243C7B61FB6903F48033BE
:101C5000002B13D0134B5B685B0C03F0010307F1FF
:101C60002802134413F8283CBB617B690E4A02FB2F
:101C700003F2BB69B2FBF3F37B6204E07B690B4ABE
:101C800002FB03F37B627B6A3B6202E0064B3B6232
:101C900000BF3B6A18462837BD4690BC704700BF5E
:101CA000A87C00080010024000127A0000093D00E4
:101CB00080B485B000AF78600A4B1B680A4AA2FB6B
:101CC00003235B0A7A6802FB03F3FB6000BFFB6837
:101CD0005A1EFA60002BF9D100BF00BF1437BD4671
:101CE00080BC704728000020D34D621080B582B0C0
:101CF00000AF78607B68002B01D1012353E07B6843
:101D000000229A627B6893F85130DBB2002B06D137
:101D10007B68002283F85020786801F06DFC7B68B6
:101D2000022283F851207B681B681A687B681B6855
:101D300022F040021A607B685A687B689B681A43ED
:101D40007B68DB681A437B681B691A437B685B69A5
:101D50001A437B689B6903F400731A437B68DB6951
:101D60001A437B681B6A42EA03017B689A6A7B68B4
:101D70001B680A431A607B689B691A0C7B681B68A6
:101D800002F004025A607B681B68DA697B681B6892
:101D900022F40062DA617B6800225A657B680122C6
:101DA00083F85120002318460837BD4680BD80B512
:101DB00088B000AFF860B9603B601346FB80002339
:101DC000FB77FB6893F85030012B01D102231EE111
:101DD000FB68012283F85020FFF798F8B861FB8870
:101DE000FB82FB6893F85130DBB2012B02D0022357
:101DF000FB7703E1BB68002B02D0FB88002B02D1EC
:101E00000123FB77FAE0FB68032283F85120FB688B
:101E100000225A65FB68BA681A63FB68FA889A86DA
:101E2000FB68FA88DA86FB6800229A63FB68002266
:101E30009A87FB680022DA87FB6800225A64FB68F5
:101E400000221A64FB689B68B3F5004F07D1FB685A
:101E50001B681A68FB681B6842F480421A60FB68C2
:101E60001B681B6803F04003402B07D0FB681B680E
:101E70001A68FB681B6842F040021A60FB68DB6866
:101E8000B3F5006F4BD1FB685B68002B02D0FB8A77
:101E9000012B3ED1FB681B6B1A88FB681B68DA605C
:101EA000FB681B6B9A1CFB681A63FB68DB8E9BB29A
:101EB000013B9AB2FB68DA862BE0FB681B689B68E3
:101EC00003F00203022B12D1FB681B6B1A88FB681C
:101ED0001B68DA60FB681B6B9A1CFB681A63FB6863
:101EE000DB8E9BB2013B9AB2FB68DA8611E0FFF70A
:101EF0000DF80246BB69D31A3A689A4203D83B6888
:101F0000B3F1FF3F02D13B68002B02D10323FB77E3
:101F100074E0FB68DB8E9BB2002BCED14CE0FB68FB
:101F20005B68002B02D0FB8A012B40D1FB681A6B47
:101F3000FB681B680C3312781A70FB681B6B5A1C09
:101F4000FB681A63FB68DB8E9BB2013B9AB2FB68AD
:101F5000DA862CE0FB681B689B6803F00203022B07
:101F600013D1FB681A6BFB681B680C3312781A706C
:101F7000FB681B6B5A1CFB681A63FB68DB8E9BB209
:101F8000013B9AB2FB68DA8611E0FEF7BFFF02461A
:101F9000BB69D31A3A689A4203D83B68B3F1FF3F52
:101FA00002D13B68002B02D10323FB7726E0FB68BC
:101FB000DB8E9BB2002BCDD1BA693968F86800F08E
:101FC00094F80346002B02D0FB6820225A65FB6878
:101FD0009B68002B0AD100233B61FB681B68DB6810
:101FE0003B61FB681B689B683B613B69FB685B6D01
:101FF000002B02D00123FB7700E000BFFB68012229
:1020000083F85120FB68002283F85020FB7F18469C
:102010002037BD4680BD80B584B000AFF860B960A0
:102020003B601346FB714CE03B68B3F1FF3F48D087
:10203000FEF76CFF0246BB69D31A3A689A4202D98E
:102040003B68002B3DD1FB681B685A68FB681B6826
:1020500022F0E0025A60FB685B68B3F5827F11D121
:10206000FB689B68B3F5004F04D0FB689B68B3F531
:10207000806F07D1FB681B681A68FB681B6822F039
:1020800040021A60FB689B6AB3F5005F0FD1FB68E2
:102090001B681A68FB681B6822F400521A60FB6810
:1020A0001B681A68FB681B6842F400521A60FB68E0
:1020B000012283F85120FB68002283F8502003237B
:1020C0000FE0FB681B689A68BB681340BA689A42C5
:1020D0000CBF01230023DBB21A46FB799A42A3D13D
:1020E000002318461037BD4680BD80B586B002AFCC
:1020F000F860B9607A607B680093BB680022802139
:10210000F868FFF788FF0346002B07D0FB685B6D7C
:1021100043F02002FB685A65032300E000231846C1
:102120001037BD4680BD80B582B000AF78607B6857
:10213000002B01D101231DE07B6893F83D30DBB219
:10214000002B06D17B68002283F83C20786801F0E0
:1021500091FA7B68022283F83D207B681A687B68CD
:1021600004331946104600F047FA7B68012283F8D1
:102170003D20002318460837BD4680BD80B485B099
:1021800000AF78607B681B68DA687B681B6842F088
:102190000102DA607B681B689B6803F00703FB6041
:1021A000FB68062B07D07B681B681A687B681B6876
:1021B00042F001021A60002318461437BD4680BC65
:1021C000704780B483B000AF78607B681B68DA68C2
:1021D0007B681B6822F00102DA607B681B681A6A60
:1021E00041F211131340002B0FD17B681B681A6A50
:1021F00040F244431340002B07D17B681B681A68E8
:102200007B681B6822F001021A60002318460C3715
:10221000BD4680BC704780B582B000AF78607B68F7
:102220001B681B6903F00203022B22D17B681B6829
:10223000DB6803F00203022B1BD17B681B686FF085
:1022400002021A617B6801221A777B681B689B690E
:1022500003F00303002B03D0786800F0B1F905E028
:10226000786800F0A4F9786800F0B3F97B68002280
:102270001A777B681B681B6903F00403042B22D1C7
:102280007B681B68DB6803F00403042B1BD17B68AD
:102290001B686FF004021A617B6802221A777B6860
:1022A0001B689B6903F44073002B03D0786800F02F
:1022B00087F905E0786800F07AF9786800F089F924
:1022C0007B6800221A777B681B681B6903F0080390
:1022D000082B22D17B681B68DB6803F00803082BFE
:1022E0001BD17B681B686FF008021A617B680422AF
:1022F0001A777B681B68DB6903F00303002B03D0AC
:10230000786800F05DF905E0786800F050F97868C9
:1023100000F05FF97B6800221A777B681B681B69F5
:1023200003F01003102B22D17B681B68DB6803F0DD
:102330001003102B1BD17B681B686FF010021A6111
:102340007B6808221A777B681B68DB6903F440739B
:10235000002B03D0786800F033F905E0786800F0CE
:1023600026F9786800F035F97B6800221A777B68D7
:102370001B681B6903F00103012B0ED17B681B68EE
:10238000DB6803F00103012B07D17B681B686FF04A
:1023900001021A61786800F0BBFA7B681B681B6950
:1023A00003F08003802B0ED17B681B68DB6803F091
:1023B0008003802B07D17B681B686FF080021A6155
:1023C000786800F05EFA7B681B681B6903F04003C5
:1023D000402B0ED17B681B68DB6803F04003402B69
:1023E00007D17B681B686FF040021A61786800F0C3
:1023F000F9F87B681B681B6903F02003202B0ED1C2
:102400007B681B68DB6803F02003202B07D17B6807
:102410001B686FF020021A61786800F029FA00BF8B
:102420000837BD4680BD80B584B000AF78603960A4
:102430007B6893F83C30012B01D10223B3E07B6829
:10244000012283F83C207B68022283F83D207B68D0
:102450001B689B68FB60FB6823F07703FB60FB68ED
:1024600023F47F43FB607B681B68FA689A603B68D3
:102470001B68B3F5005F3ED0B3F5005F00F28780C4
:10248000B3F5805F00F08580B3F5805F7FD8702B57
:102490001AD0702B7BD8602B50D0602B77D8502B64
:1024A0003CD0502B73D8402B58D0402B6FD8302BBA
:1024B00064D0302B6BD8202B60D0202B67D8002B1A
:1024C0005CD0102B5AD062E07B6818683B68996832
:1024D0003B685A683B68DB6800F067F97B681B68FB
:1024E0009B68FB60FB6843F07703FB607B681B68BD
:1024F000FA689A604EE07B6818683B6899683B68A8
:102500005A683B68DB6800F050F97B681B689A6882
:102510007B681B6842F480429A603BE07B681868E5
:102520003B6859683B68DB681A4600F0C7F87B686F
:102530001B685021184600F01EF92BE07B681868D4
:102540003B6859683B68DB681A4600F0E5F87B6831
:102550001B686021184600F00EF91BE07B681868C4
:102560003B6859683B68DB681A4600F0A7F87B684F
:102570001B684021184600F0FEF80BE07B681A68E3
:102580003B681B681946104600F0F5F802E000BFF2
:1025900000E000BF7B68012283F83D207B680022B9
:1025A00083F83C20002318461037BD4680BD80B418
:1025B00083B000AF786000BF0C37BD4680BC704769
:1025C00080B483B000AF786000BF0C37BD4680BCDC
:1025D000704780B483B000AF786000BF0C37BD4651
:1025E00080BC704780B483B000AF786000BF0C3708
:1025F000BD4680BC7047000080B485B000AF7860F5
:1026000039607B681B68FB607B68294A93420BD06A
:102610007B68B3F1804F07D07B68264A934203D092
:102620007B68254A934208D1FB6823F07003FB6066
:102630003B685B68FA681343FB607B681C4A934203
:102640000BD07B68B3F1804F07D07B68194A934267
:1026500003D07B68184A934208D1FB6823F4407387
:10266000FB603B68DB68FA681343FB60FB6823F0A0
:1026700080023B685B691343FB607B68FA681A6001
:102680003B689A687B68DA623B681A687B689A6282
:102690007B68074A934203D13B681A697B681A63D7
:1026A0007B6801225A6100BF1437BD4680BC704769
:1026B000002C0140000400400008004080B487B0B6
:1026C00000AFF860B9607A60FB681B6A7B61FB68E9
:1026D0001B6A23F00102FB681A62FB689B693B617D
:1026E0003B6923F0F0033B617B681B013A691343AC
:1026F0003B617B6923F00A037B617A69BB68134302
:102700007B61FB683A699A61FB687A691A6200BF6B
:102710001C37BD4680BC704780B487B000AFF860FE
:10272000B9607A60FB681B6A23F01002FB681A62CA
:10273000FB689B697B61FB681B6A3B617B6923F4D7
:1027400070437B617B681B037A6913437B613B6940
:1027500023F0A0033B61BB681B013A6913433B6153
:10276000FB687A699A61FB683A691A6200BF1C3794
:10277000BD4680BC704780B485B000AF78603960DA
:102780007B689B68FB60FB6823F07003FB603A6822
:10279000FB68134343F00703FB607B68FA689A60A9
:1027A00000BF1437BD4680BC704780B487B000AF0F
:1027B000F860B9607A603B60FB689B687B617B690D
:1027C00023F47F437B613B681A027B681A43BB6832
:1027D00013437A6913437B61FB687A699A6000BF8F
:1027E0001C37BD4680BC704780B485B000AF7860B0
:1027F00039607B6893F83C30012B01D1022332E031
:102800007B68012283F83C207B68022283F83D200C
:102810007B681B685B68FB607B681B689B68BB60B0
:10282000FB6823F07003FB603B681B68FA68134386
:10283000FB60BB6823F08003BB603B685B68BA68E1
:102840001343BB607B681B68FA685A607B681B682F
:10285000BA689A607B68012283F83D207B68002279
:1028600083F83C20002318461437BD4680BC7047CF
:1028700080B483B000AF786000BF0C37BD4680BC29
:10288000704780B483B000AF786000BF0C37BD469E
:1028900080BC704780B582B000AF0346FB80FB88E8
:1028A000B3F5804F0AD1184B1B78002B06D0174880
:1028B000FFF764FC144B00221A7000E000BFFB8895
:1028C000B3F5005F0AD1104B1B78002B06D00F48E0
:1028D000FFF754FC0C4B00221A7000E000BFFB888D
:1028E000B3F5805F0AD1084B1B78002B06D0074850
:1028F000FFF744FC044B00221A7001E000BF00BF48
:1029000000BF0837BD4680BD0C000020500A0020E3
:1029100080B582B000AF78604FF480413848FEF750
:10292000B5FD0346002B23D1364B1B68002B02D08C
:10293000012B0AD016E0344B1B68002B0FDD324B05
:102940001B68013B304A136009E0304B1B68002BC9
:1029500007DD2E4B1B68013B2C4A136001E000BFD2
:1029600000E000BF2A4B01221A702A48FFF729FC19
:102970004FF400512248FEF789FD0346002B27D172
:10298000204B1B68002B02D0012B0ED01AE01E4BEF
:102990001B68002B13DB1C4B1B681D2B0FDC1A4B19
:1029A0001B680133184A136009E0184B1B68012BA0
:1029B00007DC164B1B680133144A136001E000BFAB
:1029C00000E000BF124B01221A701248FFF7F9FB1A
:1029D0004FF480510A48FEF759FD0346002B0AD1F7
:1029E000084B1B680133074A1360094B01221A7018
:1029F0000848FFF7E6FB00BF0837BD4680BD00BFB3
:102A0000000C0140940A0020900A002008000020D9
:102A10000C000020500A002080B500AF254B00229A
:102A20001A60254B254A1A60234B3C225A60224BE0
:102A30004B229A60204B5A22DA601F4B204A1A61BF
:102A40001D4B64225A611C4B78229A611A4B8C22CE
:102A5000DA61FEF703FA00F039F800F003F900F04C
:102A60007BF800F0AFF800F0B7FB00F085F94FF409
:102A7000FA70FEF755FA134B1B68002B03D0114B6D
:102A80001B68012B09D10B4B1B680E4A11680E4ABB
:102A90001268184600F0DCFA0BE00A4B1B68022BA8
:102AA000E9D1044B1B68084A12681146184600F029
:102AB00041FAE0E7900A0020980A0020B87C00085C
:102AC000C47C0008940A00200800002080B590B063
:102AD00000AF07F1180328220021184600F084FFF8
:102AE0003B1D00221A605A609A60DA601A61012365
:102AF000BB614FF48033FB6100233B620123BB6267
:102B000002237B634FF48033BB634FF4E013FB631A
:102B100007F118031846FEF701FD0346002B01D00C
:102B200000F024F90F237B600223BB600023FB60CD
:102B30004FF480633B6100237B613B1D02211846FB
:102B4000FEF76CFF0346002B01D000F00FF900BF29
:102B50004037BD4680BD000080B500AF174B184A16
:102B60001A60164B4FF482725A60144B00229A601E
:102B7000124B0022DA60114B02221A610F4B012224
:102B80005A610E4B4FF400729A610C4B0822DA61C5
:102B90000A4B00221A62094B00225A62074B00229C
:102BA0009A62064B0A22DA620448FFF79FF803464E
:102BB000002B01D000F0DAF800BF80BDF80900203A
:102BC0000030014080B586B000AF07F10803002255
:102BD0001A605A609A60DA603B4600221A605A60B6
:102BE0001E4B1F4A1A601D4B48F6A0425A601B4BF1
:102BF00000229A60194B6422DA60184B00221A6195
:102C0000164B00225A61154B00229A611348FFF7B8
:102C10008AFA0346002B01D000F0A8F84FF4805345
:102C2000BB6007F1080319460C48FFF7FCFB03469D
:102C3000002B01D000F09AF800233B6000237B605A
:102C40003B4619460548FFF7CFFD0346002B01D050
:102C500000F08CF800BF1837BD4680BD500A002038
:102C6000002C014080B588B000AF07F110030022AE
:102C70001A605A609A60DA60384B9B69374A43F0B1
:102C800010039361354B9B6903F01003FB60FB68F5
:102C9000324B9B69314A43F0200393612F4B9B6970
:102CA00003F02003BB60BB682C4B9B692B4A43F0AD
:102CB00004039361294B9B6903F004037B607B68E9
:102CC000264B9B69254A43F008039361234B9B697C
:102CD00003F008033B603B6800224FF4005120489A
:102CE000FEF7EBFB002238211E48FEF7E6FB4FF40F
:102CF00000533B6101237B610023BB610223FB6125
:102D000007F1100319461648FEF73CFA4FF4E0436A
:102D10003B61154B7B610123BB6107F11003194631
:102D20001048FEF72FFA38233B6101237B61002313
:102D3000BB610223FB6107F1100319460948FEF746
:102D400021FA002200212820FEF7E5F92820FEF7CD
:102D5000FEF900BF2037BD4680BD00BF0010024015
:102D600000100140000C01400000211080B400AFB1
:102D700000BFBD4680BC704780B500AF012000F0A9
:102D800099FA0021002000F0EDFB0A4A002306CA50
:102D9000094800F0C1FB0521642000F0E3FB074A6D
:102DA000002306CA064800F0B7FB00F0A5FA00BFF2
:102DB00080BD00BF20000020CC7C00081000002057
:102DC000D87C000880B582B000AF78607B68DBB249
:102DD0001946022000F0C6FB0A4A002306CA3C201E
:102DE00000F012FB7B68DBB21946742000F0BAFBDE
:102DF000044A002306CA3E2000F006FB00BF083745
:102E0000BD4680BD2000002080B582B000AF786054
:102E100039603B68022B57D03B68022B7BDC3B6858
:102E2000002B03D03B68012B27D074E07B68DBB21A
:102E3000053BDBB219460B2000F094FB384A002317
:102E400006CA384800F068FB7B68DBB219463420BC
:102E500000F088FB344A002306CA344800F05CFBCB
:102E60007B68DBB21946572000F07CFB2E4A00231A
:102E700006CA2F4800F050FB4EE07B68DBB21946D3
:102E80000F2000F06FFB284A002306CA254800F0F7
:102E900043FB7B68DBB2053BDBB219462D2000F01B
:102EA00061FB1F4A002306CA204800F035FB7B68FF
:102EB000DBB21946572000F055FB1B4A002306CA17
:102EC0001B4800F029FB27E07B68DBB219460F2086
:102ED00000F048FB144A002306CA124800F01CFB0D
:102EE0007B68DBB21946322000F03CFB0E4A00231F
:102EF00006CA0E4800F010FB7B68DBB2053BDBB274
:102F000019464C2000F02EFB054A002306CA08484B
:102F100000F002FB00E000BF00BF0837BD4680BDE7
:102F200020000020E07C000818000020E47C00085D
:102F3000EC7C000890B589B000AF786039603B4AFE
:102F40007B681B01134407F110040FCB84E80F00CA
:102F5000012000F0AFF90421022000F003FB344A05
:102F6000002306CA334800F0D7FA1321142000F0DA
:102F7000F9FA3869304A002306CA00F0CDFA2B214D
:102F80000A2000F0EFFA3B68022B25D03B68022BA9
:102F900030DC3B68002B03D03B68012B0ED029E0CE
:102FA000254A002306CA254800F0B6FA7A6907F1D7
:102FB00008007323224900F067FD1CE01E4A00232D
:102FC00006CA204800F0A8FABA6907F1080073237E
:102FD0001B4900F059FD0EE0174A002306CA1A48A3
:102FE00000F09AFAFA6907F108007323144900F017
:102FF0004BFD00E000BF2B21532000F0B3FA0E4A36
:1030000007F10800002306CA00F086FA2B213720BA
:1030100000F0A8FA084A002306CA0C4800F07CFA1F
:1030200000F06AF900BF2437BD4690BD980A002021
:1030300018000020F47C000820000020E07C00083C
:10304000087D0008E47C0008EC7C0008107D000886
:1030500090B589B000AFF860B9607A60284AFB6823
:103060001B01134407F110040FCB84E80F0001206B
:1030700000F020F9BB68002B03D0BB68012B04D003
:1030800007E01320FFF79EFE03E02D20FFF79AFED6
:1030900000BF7B68022B13D07B68022B15DC7B689A
:1030A000002B03D07B68012B05D00EE000213220DD
:1030B000FFF7AAFE0AE001213220FFF7A5FE05E096
:1030C00002213220FFF7A0FE00E000BF04210C2007
:1030D00000F048FA0B4A002306CA0B4800F01CFA1D
:1030E0001321142000F03EFA3869084A002306CA6A
:1030F00000F012FA00F000F900BF2437BD4690BD81
:10310000980A002018000020147D000820000020EC
:1031100080B500AF012210210A48FEF7CEF9002247
:1031200008210848FEF7C9F90A20FDF7F9FE012237
:1031300008210448FEF7C1F90A20FDF7F1FE00BF9F
:1031400080BD00BF000C014080B582B000AF0346D7
:10315000FB71002210210C48FEF7AFF9002220215C
:103160000948FEF7AAF9F91D4FF0FF33012207487D
:10317000FEF71DFE012210210348FEF79EF900BF55
:103180000837BD4680BD00BF000C0140F809002093
:1031900080B582B000AF78603960002210210C4801
:1031A000FEF78BF9012220210948FEF786F93B68DA
:1031B0009AB24FF0FF3379680648FEF7F8FD012216
:1031C00010210348FEF779F900BF0837BD4680BDDE
:1031D000000C0140F809002080B500AFFFF798FF10
:1031E0006420FDF79DFEAE20FFF7AEFF2020FFF725
:1031F000ABFF0020FFF7A8FFB020FFF7A5FFC82016
:10320000FFF7A2FF0020FFF79FFF1020FFF79CFFB2
:103210004020FFF799FF8120FFF796FFFF20FFF77F
:1032200093FFA120FFF790FFA620FFF78DFFA820B6
:10323000FFF78AFF3F20FFF787FFA420FFF784FFF7
:10324000D320FFF781FF0020FFF77EFFD520FFF797
:103250007BFFF020FFF778FFD920FFF775FF2220D2
:10326000FFF772FFDA20FFF76FFF1220FFF76CFF06
:10327000DB20FFF769FF2020FFF766FF8D20FFF7B7
:1032800063FF1420FFF760FFAF20FFF75DFF002012
:1032900000F010F800F030F8054B00221A80044BC3
:1032A00000225A80024B01225A7100BF80BD00BF2C
:1032B0007810002080B485B000AF0346FB71002376
:1032C000FB600DE0FB79002B01D1002100E0FF2124
:1032D000084AFB6813440A461A70FB680133FB6016
:1032E000FB68B3F5806FEDD300BF00BF1437BD4658
:1032F00080BC7047780C002080B582B000AF0023FE
:10330000FB7116E0FB79503BDBB21846FFF71CFF60
:103310000020FFF719FF1020FFF716FFFB79DB01F4
:10332000084A134480211846FFF732FFFB79013326
:10333000FB71FB79072BE5D900BF00BF0837BD46FD
:1033400080BD00BF780C002080B483B000AF03467E
:10335000FB710B46BB7113467B7197F90730002B4D
:1033600048DBBB793F2B45D8254B1B79002B06D07A
:103370007B79002B0CBF01230023DBB27B717B79AF
:10338000012B1AD1FA79BB79DB08D8B20346DB01ED
:1033900013441C4AD35C5AB2BB7903F007030121E2
:1033A00001FA03F35BB2134359B2FA790346DB0126
:1033B0001344C9B2134AD1541DE0FA79BB79DB0832
:1033C000D8B20346DB0113440E4AD35C5AB2BB7930
:1033D00003F00703012101FA03F35BB2DB435BB2A5
:1033E000134059B2FA790346DB011344C9B2054AC6
:1033F000D15400E000BF0C37BD4680BC704700BF11
:1034000078100020780C002090B589B000AF0446F9
:10341000381D80E806001A462346FB731346BB732B
:10342000FB7B1F2B02D9FB7B7E2B01D900236DE098
:10343000384B1B881A463B791344802B06DC354BEE
:103440005B881A467B791344402B01DD00235DE045
:103450000023FB614CE0BA68FB7B203B797901FBE0
:1034600003F31946FB690B445B0013441B887B6123
:103470000023BB6134E07A69BB6902FA03F303F409
:103480000043002B12D0234B1B88DAB2BB69DBB29E
:103490001344D8B21F4B5B88DAB2FB69DBB213442A
:1034A000DBB2BA7B1946FFF74FFF16E0194B1B88BA
:1034B000DAB2BB69DBB21344D8B2164B5B88DAB21E
:1034C000FB69DBB21344D9B2BB7B002B0CBF0123D9
:1034D0000023DBB21A46FFF737FFBB690133BB613C
:1034E0003B791A46BB699342C5D3FB690133FB6143
:1034F0007B791A46FB699342ADD3064B1A883B7918
:103500009BB213449AB2034B1A80FB7B18462437B4
:10351000BD4690BD7810002080B584B000AFF86043
:10352000381D80E80600FB7012E0FB681878FB7815
:103530003A1D06CAFFF768FF03461A46FB681B7868
:103540009A4202D0FB681B7808E0FB680133FB60FD
:10355000FB681B78002BE8D1FB681B7818461037F6
:10356000BD4680BD80B483B000AF03460A46FB7100
:103570001346BB71FB799AB2054B1A80BB799AB29C
:10358000034B5A8000BF0C37BD4680BC704700BF5C
:103590007810002080B485B000AF154B9B69144AA9
:1035A00043F001039361124B9B6903F00103BB607D
:1035B000BB680F4BDB690E4A43F08053D3610C4B61
:1035C000DB6903F080537B607B680A4B5B68FB60C0
:1035D000FB6823F0E063FB60FB6843F08063FB6003
:1035E000044AFB68536000BF1437BD4680BC704777
:1035F000001002400000014080B588B000AF786044
:1036000007F1100300221A605A609A60DA607B6842
:103610001B68154A934223D1144B9B69134A43F408
:1036200080539361114B9B6903F48053FB60FB68EB
:103630000E4B9B690D4A43F0040393610B4B9B694E
:1036400003F00403BB60BB68A0233B6102237B61E2
:103650000323FB6107F1100319460548FDF792FDAE
:1036600000BF2037BD4680BD003001400010024041
:103670000008014080B584B000AF78607B681B68AB
:10368000194A93422BD1194B9B69184A43F40063A2
:103690009361164B9B6903F40063FB60FB68002297
:1036A00000211820FDF737FD1820FDF750FD0022FE
:1036B00000211920FDF72FFD1920FDF748FD0022FC
:1036C00000211A20FDF727FD1A20FDF740FD0022FA
:1036D00000211B20FDF71FFD1B20FDF738FD00BF5B
:1036E0001037BD4680BD00BF002C014000100240D5
:1036F00080B400AF00BFBD4680BC704780B400AF4F
:10370000FEE780B400AFFEE780B400AFFEE780B410
:1037100000AFFEE780B400AF00BFBD4680BC70477D
:1037200080B400AF00BFBD4680BC704780B400AF1E
:1037300000BFBD4680BC704780B500AFFDF7D4FB2D
:1037400000BF80BD80B500AF0248FEF764FD00BF3A
:1037500080BD00BF500A002080B500AF0248FEF7D0
:103760005AFD00BF80BD00BF500A002080B500AFE9
:103770000248FEF750FD00BF80BD00BF500A002088
:1037800080B500AF0248FEF746FD00BF80BD00BF18
:10379000500A002080B500AF4FF48050FDF7A6FE20
:1037A0004FF40050FDF7A2FE4FF48040FDF79EFE5F
:1037B00000BF80BD80B584B000AF7860114B1B683E
:1037C000002B02D10F4B104A1A600E4B1B68FB6096
:1037D0000C4B1A687B6813446A46934207D900F081
:1037E0006FF803460C221A604FF0FF3306E0054BDA
:1037F0001A687B681344034A1360FB681846103745
:10380000BD4680BD80100020E010002080B400AFD5
:10381000154B1B68144A43F001031360124B5A689E
:103820001149124B13404B600F4B1B680E4A23F09B
:10383000847323F4803313600B4B1B680A4A23F410
:1038400080231360084B5B68074A23F4FE03536030
:10385000054B4FF41F029A60054B4FF000629A60CF
:1038600000BFBD4680BC7047001002400000FFF85A
:1038700000ED00E0002103E00B4B5B5843500431A6
:103880000A480B4B42189A42F6D30A4A02E0002338
:1038900042F8043B084B9A42F9D3FFF7B7FF00F018
:1038A00015F8FFF7B9F870478C9A0008000000205F
:1038B000D8090020D8090020E0100020FEE7000011
:1038C000014B1868704700BF2C00002070B50D4EEA
:1038D0000D4D761BB61006D0002455F8043B01347C
:1038E0009847A642F9D1094E094D04F0CFF9761B4D
:1038F000B61006D0002455F8043B01349847A64280
:10390000F9D170BD809A0008809A0008889A000852
:10391000809A00088842F0B40DD98B1883420AD9E6
:10392000841832B1224613F8014D994202F8014D34
:10393000F9D1F0BC70470F2A0ED80346541E002A56
:10394000F7D001340C44013B11F8012BA14203F8DC
:10395000012FF9D1F0BC704740EA01039B073ED12B
:10396000A2F1100323F00F0401F1200727441B09E3
:1039700001F1100400F1100554F8106C103445F8F2
:10398000106C54F81C6C103545F81C6C54F8186C0D
:1039900045F8186C54F8146CBC4245F8146CEBD123
:1039A000013312F00C0F01EB031102F00F0400EBD6
:1039B000031317D00E46043C24F0030CA5089C44C6
:1039C0001C1F56F8047B44F8047F6445F9D16C1C35
:1039D00003EB840301EB840102F00302AEE703462C
:1039E000541EAEE72246A9E7F0B4860746D0541E1F
:1039F000002A3CD00346CAB201E0013C37D303F8A9
:103A0000012B9D07F9D1032C2AD9CDB245EA052512
:103A10000F2C45EA054534D9A4F1100222F00F0C11
:103A200003F120071609674403F1100242E9045527
:103A300042E902551032BA42F8D1721C14F00C0F50
:103A400003EB021204F00F0613D0331F23F003031D
:103A50000433134442F8045B9342FBD106F00304A1
:103A60002CB1CAB21C4403F8012B9C42FBD1F0BC20
:103A7000704734461346002CF3D1F8E7144603464A
:103A8000C1E71A462646E0E70EB4014630B56FF0AE
:103A900000449CB01FAB0B4853F8042B0A4D029115
:103AA0000691006802A90193CDE90445079400F04E
:103AB0000DF80022029B1A701CB0BDE8304003B024
:103AC000704700BF2C0000200802FFFF2DE9F04FD7
:103AD000D7B08B4617460E93814602F0F3FE03687B
:103AE0001846189303F06AFDBBF80C3017901D06BA
:103AF00004D5DBF81030002B00F0DF870023002115
:103B00000022CDE92B33CDE91A33CDE91C331393D1
:103B100019930A932DAB98462A933B78DA46CDE960
:103B20001412002B00F0A4813C4604E014F8013F7D
:103B3000002B00F0FD80252BF8D1E51B40F0FB8029
:103B40002378002B00F0948100230B938DF88B30A9
:103B500007934FF0FF33667804F1010B20212B24EB
:103B600009930BF1010BA6F120035A2B00F2FF8001
:103B7000DFE813F0BC02FD00FD00B502FD00FD0012
:103B8000FD009102FD00FD006A00E702FD00340225
:103B9000CD02FD00C6025B005B005B005B005B00CA
:103BA0005B005B005B005B00FD00FD00FD00FD00B5
:103BB000FD00FD00FD009001FD00F7017C0090017B
:103BC00090019001FD00FD00FD00FD008A02FD0056
:103BD000FD00A900FD00FD00FD000B02FD003B0201
:103BE000FD00FD008107FD00FD00FD00FD00FD0062
:103BF000FD00FD00FD009001FD00F7018000900137
:103C000090019001800280007500FD007602FD00A9
:103C10005E02AD004C027500FD000B0272005B07F6
:103C2000FD00FD005F07FD0072000022A6F13003D9
:103C30001BF8016B02EB820203EB4202A6F1300398
:103C4000092BF5D90B928EE70E9B53F8042B002A13
:103C50000B920E93C0F2BF819BF8006081E7079B37
:103C60009BF8006043F0200307937AE7079B43F03B
:103C700010030793079B9C0640F162810E9B07335C
:103C800023F007031946F1E8022314461D460E915E
:103C9000002A73F10003C0F2AB85099B0133079B37
:103CA00000F0148423F0800354EA0502089340F0E6
:103CB0000E84099A002A40F00F840793002356AF20
:103CC00009930C936BE2079B43F010030793079B48
:103CD0009A0640F126810E9B073323F00703F3E891
:103CE00002450E93079B23F4806308930023002270
:103CF0008DF88B20099A1146013100F03182089924
:103D000021F08001079154EA050140F02782002A42
:103D100040F07D83002BD1D1089B13F001030C935D
:103D200000F0908530230DF257178DF8573136E2A9
:103D3000E51B00F09D80DDE92B3201332A44072B7F
:103D4000C8E90075CDE92B3206DC08F108080A9AAB
:103D500023782A440A92F4E6514648462AAA03F0F8
:103D60008FFC002841F0CE830DF1B408EFE7002E60
:103D70007ED0002301211A4608918DF8F4608DF859
:103D80008B300D9309931293169310930C913DAFC2
:103D9000079B13F0020302D008990231089107999A
:103DA00011F084010F9105D10B9908980D1A002D7F
:103DB00000F34B832C9C72B101202B9A04440244E3
:103DC0000DF18B01072ACDE92B24C8E9001000F37F
:103DD000CD8308F108086BB102212B9B0C44013301
:103DE00023AA072BCDE92B34C8E9002100F3CC83AB
:103DF00008F108080F9B802B00F03482099B0C9A75
:103E00009D1A002D00F36E82079BD90500F1D58124
:103E10002B9B0C9A01331444072BC8E900722C9495
:103E20002B9300F3978308F10808079B590705D5E2
:103E30000B9B089A9D1A002D00F3B283DDE90A322C
:103E400008998A42ACBF9B185B180A93002C40F07B
:103E50007D8200232B930D9B1BB148460D9902F0E8
:103E60002BFC5F460DF1B4083B78002B7FF45CAE71
:103E70002C9BD346002B41F04B82BBF80C3013F047
:103E8000400F0A9B18BF4FF0FF330A930A9857B0B0
:103E9000BDE8F08F0E9B073323F007031946F1E8C6
:103EA0000223CDE91423DDE9143424F000441D4637
:103EB00018460E914FF0FF322146A44BFCF73CFE12
:103EC000002840F0D984284621464FF0FF329F4B0E
:103ED000FCF714FE002840F0CF84DDE91401002235
:103EE0000023FCF701FE002841F00E809DF88B2096
:103EF00003200021964F974B08900D91472EC8BF85
:103F00001F46079C0C9024F080040794099112919D
:103F100016911091002A3FF43BAF089B01330893A0
:103F200036E7079BDB0600F19C84079B5F0640F1A8
:103F3000B2870E9B002553F8044B0E93A4B2D1E632
:103F4000079BD80600F16885079B590640F1BE879C
:103F50000E9B53F8044B24B2E5170E9322462B46D2
:103F600096E6002101240E9B0A4653F8040B0894A0
:103F7000CDE90D138DF88B108DF8F4000991129195
:103F8000169110910C943DAF02E700250E9C8DF820
:103F90008B5054F8047B002F00F09F85099A13463C
:103FA000013300F070872946384602F041FF0D903A
:103FB000002801F0B9802B460D9A0995D21B0C926E
:103FC00022EAE27208920E949DF88B200D931293D0
:103FD000169310939EE70B9B5B420B93079B9BF8FA
:103FE000006043F004030793BBE5079B43F0100315
:103FF0000893089B9D0640F1EA830E9B073323F04C
:104000000703F3E802450E93012370E647F63002FA
:104010000E9B079953F8044B41F002010E934E4B4F
:1040200000251993782602230891ADF88C205EE6CE
:10403000079B9D0600F10884079BDC0600F1E186E2
:10404000079B580600F19587079B990540F1D98693
:104050000E9B0A9953F8042B5F4611700E9303E7E9
:104060009BF80060079B6C2E00F0088543F010035E
:10407000079376E59BF80060079B682E00F00785A4
:1040800043F0400307936CE5079B9BF8006043F007
:104090000803079365E5484602F014FC4368184698
:1040A0001C9303F08BFA034648461D461D9302F00D
:1040B00009FC826820211A92002D3FF4CDAD1A9B95
:1040C000002B3FF4C9AD1A9B1B78002B3FF4C4AD05
:1040D000079B9BF8006043F48063079341E5079BCF
:1040E0009BF8006043F0010307933AE59DF88B309D
:1040F000002B7FF4B1AD9BF800608DF88B1030E59C
:10410000079B9BF8006043F08003079329E55A461C
:1041100012F8016B2A2E01F05182A6F13003092B0F
:10412000934698BF002201F2EF801BF8016B02EB6F
:10413000820203EB4202A6F13003092BF5D9099262
:1041400011E59BF800608DF88B400AE5FFFFEF7FDB
:10415000F0970008F497000800980008079A089262
:10416000012B00F0B481022B00F0598156AFE20818
:1041700042EA4572E90804F007030D46144630335D
:1041800054EA05013A4607F8013DF0D1089908467E
:10419000C00700F1B88256ABDB1B07910C930023DC
:1041A00009990D931293169310930C9B9DF88B20F5
:1041B0008B42B8BF0B460893ACE6652E40F3D8801F
:1041C000DDE9140100220023FCF784FC002800F044
:1041D0001E8201212B9BC54A0B440C44072BCDE9C1
:1041E0002B34C8E9002100F3BB8508F10808249BA3
:1041F000139A934280F221832B9B179A01331899CB
:104200001444072BC8E900122C942B9300F3488424
:1042100008F10808139B5D1E002D7FF706AE102DD8
:1042200040F3C785B24F10262B9B0F9705E008F18E
:104230000808103D102D40F3BF8501331034072BC3
:10424000CDE92B34C8E90076F1DD514648462AAA6B
:1042500003F016FA002840F08180DDE92B340DF1DF
:10426000B408E6E70B9B089A9D1A002D7FF7C6ADB0
:10427000102D41F369809E482146102304462B9A55
:104280000F9004E0103D102D08F1080817DD0132F1
:104290001031072ACDE92B21C8E90043F2DD514650
:1042A00048462AAA03F0ECF9002857D1DDE92B2172
:1042B000103D102D4FF010030DF1B408E7DC0C4653
:1042C00001320F9B2C44072ACDE92B24C8E9003585
:1042D00000F38A85099B0C9A08F108089D1A002DA5
:1042E0007FF792AD102D40F30A86814821461023B6
:1042F00004462B9A0F9004E0103D102D08F1080899
:1043000016DD01321031072ACDE92B21C8E900431F
:10431000F2DD514648462AAA03F0B2F9F0B9DDE9C8
:104320002B21103D102D4FF010030DF1B408E8DCE7
:104330000C4601320F9B2C44072ACDE92B24C8E9F7
:10434000003500F3378208F108085DE5514648461C
:104350002AAA03F095F900283FF47BADD3460D9BC4
:10436000002B3FF48AAD48460D9902F0A5F984E58B
:10437000139B012B40F3D58101232B9D1C441D442D
:10438000072D2C94C8F800702B95C8F8043000F362
:104390003A8208F10808179B0135189A1C44072D2A
:1043A000CDE92B54C8E9002300F33A8208F108084C
:1043B0000023DDE914010022FCF78CFB139B00288D
:1043C00040F0CD81013B013501371C44072DCDE97B
:1043D0002B54C8F80070C8F8043000F3DC8408F1EE
:1043E00008081B9A0135144426AB072DCDE92B5440
:1043F000C8E900327FF717AD514648462AAA03F0B4
:104400003FF90028AAD12C9C0DF1B4080DE5012B31
:1044100000F0CA87022B079B08937FF4A7AE199878
:1044200056AF230943EA0573290904F00F020D462C
:104430001C46835C07F8013D54EA0503F1D1089B53
:10444000079356ABDB1B0C93A9E6102D40F368864F
:10445000DDE92B211E930B4639461024374656467C
:10446000CA46894604E0103D102D08F1080817DD02
:10447000013220491033072ACDE92B23C8E9001463
:10448000F1DD314650462AAA03F0FAF8002840F040
:104490005884DDE92B23103D102D0DF1B408E7DC25
:1044A0004846D146B2463E46074619461E9B4C1921
:1044B00001321049072ACDE92B24C8E9001500F381
:1044C0001F849DF88B2008F1080874E40893002DE0
:1044D00008BF0A2C80F0D083089B30340793012357
:1044E0008DF857410C930DF2571758E63098000895
:1044F0004498000834980008514648462AAA03F018
:10450000BFF800287FF42AAF249A2C9C0DF1B40840
:10451000002A40F07F84079B139A03F001031343A2
:104520003FF483AC2B9B179A013318991444072B43
:10453000C8E900122C942B9300F3248508F1080895
:10454000139A01331444072BCDE92B34C8E90072C8
:104550007FF769AC514648462AAA03F091F8002833
:104560007FF4FCAE2C9C0DF1B4085EE45146484645
:104570002AAA1E9303F084F800287FF4EFAE2C9C47
:104580001E9B0DF1B40826E4514648462AAA03F0C2
:1045900077F800287FF4E2AE2C9C0DF1B40829E4F2
:1045A000102D40F3BE8610262B9B04E0103D102DED
:1045B00008F1080817DD0133AD4A1034072BCDE9A7
:1045C0002B34C8E90026F1DD514648462AAA03F0FB
:1045D00057F800287FF4C2AEDDE92B34103D102DD2
:1045E0000DF1B408E7DC0133A14A2C44072BCDE9D7
:1045F0002B34C8E900257FF721AC514648462AAA4A
:1046000003F03EF800287FF4A9AE2C9C16E4249A0F
:10461000002A40F38683109B139A9342A8BF134647
:10462000002B1D460BDD2B9B2C440133072BC8E9C7
:1046300000752C942B9300F31E8508F10808109B3D
:10464000002DA8BF5B1B002B1D4600F35682109B5C
:104650003B441E46079B5B0500F17782249B139A1F
:10466000934203DB079AD50740F17A842B9A179976
:10467000013218980C44072AC8E900012C942B92A7
:1046800000F3068508F10808139ABD18AD1BD31A6C
:104690009D42A8BF1D46002D0BDD2B9A2C440132F4
:1046A000072AC8E900652C942B9200F35F8508F176
:1046B0000808002DB4BF1D465D1B002D7FF7B5AB6C
:1046C000102D40F376836B4F10262B9B0F9705E040
:1046D00008F10808103D102D40F36E8301331034AB
:1046E000072BCDE92B34C8E90076F1DD5146484669
:1046F0002AAA02F0C5FF00287FF430AEDDE92B3492
:104700000DF1B408E6E7302B3FF499AE3023023ABE
:1047100007F8013C089956AB9B1A174607910C9372
:104720003DE5079BD8073FF527AE01232B9D1C4491
:104730001D44072D2C94C8F800702B95C8F8043040
:104740007FF74DAE514648462AAA02F099FF00284D
:104750007FF404AEDDE92B540DF1B40841E65E1E92
:10476000002E7FF73EAE102E40F31E87414BCDF852
:1047700024B01027D3460F93CA46994605E008F1A6
:104780000808103E102E40F3F88201351034072D32
:10479000CDE92B54C8E90097F1DD594650462AAAC5
:1047A00002F06EFF002840F0CC85DDE92B540DF1BE
:1047B000B408E6E7514648462AAA02F061FF0028FD
:1047C0007FF4CCAD2C9C0DF1B408FFF71DBB089B0A
:1047D000DC0600F11981089B580640F168830E9AA7
:1047E000012352F8044B00250E92A4B2FFF77FBAC2
:1047F0002D23079A64428DF88B3065EB4505012324
:104800000892FFF777BA514648462AAA02F038FFC5
:1048100000287FF4A3ADDDE92B540DF1B408BAE50F
:10482000514648462AAA02F02BFF00287FF496AD95
:10483000DDE92B540DF1B408BAE5079BDA077FF5E3
:10484000F4AAD9E456AFAAE40E9B5F4653F8041BC2
:104850000E930A9BDD171A462B46C1E90023FFF78A
:1048600003BB0E9B002553F8044B0E93FFF73ABA97
:104870003498000844980008DDE914010B4602460C
:10488000FCF75AF90146002840F04386612E00F0FB
:104890008685412E00F07A84099B26F020055A1C5B
:1048A000089500F07D83472D00F09E85DDE9140119
:1048B000079B43F4807312930B46002BC0F2BA851A
:1048C00000220F931E920D920C90462D0C9A00F030
:1048D0000784452D4FF002000F9B40F0E7830999B4
:1048E00000904C1C28A925A8049124A9CDE9021008
:1048F0000194484600F034FF07460444129B079D8C
:104900000793002200230C980F99FCF7E3F8002886
:1049100000F098832346DB1B1393089B472B00F082
:104920005E83089B462B00F00B84249B1093109B06
:10493000089A013B412A249300F0AD850021F2B290
:10494000002B8DF89820B6BF2D222B22109B8DF8BE
:104950009920B8BFC3F10103092B40F3A2850DF1E3
:10496000A70E72469C46BF4C6046114684FB0C2342
:104970004FEAEC72C2EBA30202EB8203ACEB4303FF
:1049800030336328944601F8013C01F1FF32EBDC3F
:1049900063463033D8B28B1E9E4502F8010C40F2BC
:1049A0002C860DF19A0301E012F8010B964503F8ED
:1049B000010BF9D10DF1A9030DF19A025B1A134411
:1049C00026AA9B1A1B93139B1B9A012B1A440C9229
:1049D00040F3CC850C9B179A13440C93002312933D
:1049E000169310930C9B25F4806545F4807223EA9E
:1049F000E373079208931E9B002B40F017839DF8EA
:104A00008B200993FFF786BA0E9A012352F8044BC4
:104A100000250E92FFF76BB90E9B53F8044BE51778
:104A20000E9322462B46FFF733B9079B0893FFF7F7
:104A3000E0BA8D4B1993079B990640F1FE800E9BBF
:104A4000073323F00703F3E802450E93079AD707CD
:104A50000AD554EA050307D0302342F002028DF84C
:104A60008D6007928DF88C30079A022322F48062C1
:104A70000892FFF73CB97D4B1993DCE743F0200324
:104A80009BF8016007930BF1010BFFF76AB843F441
:104A900000739BF8016007930BF1010BFFF761B8FE
:104AA000514648462AAA02F0EBFD00287FF456AC96
:104AB0002C9C0DF1B408FFF7ADBB4021484601F036
:104AC00009FFCBF80000CBF81000002800F08D851E
:104AD0004023CBF81430FFF711B8099B3A46062B58
:104AE00028BF062309971297169710970D970893DA
:104AF0005F4F0E940C93FFF70DBA102B40F35885BF
:104B000051465C4ACA4609971026174689462B9B90
:104B10000F9205E008F10808103D102D40F3FA81CE
:104B200001331034072BCDE92B34C8E90076F1DDD1
:104B3000494650462AAA02F0A3FD002840F0FD8312
:104B4000DDE92B340DF1B408E6E7139B4246DDF8AE
:104B50005880FB180993CDF830B00F972046DDF848
:104B600074B01A9F129BB8F1000F2DD07BBB013F90
:104B700008F1FF382B9B1C9901335844072BC2E9DD
:104B8000001B2C902B9362DC083209993B788D1B1B
:104B90009D42A8BF1D46002D0BDD2B9B28440133F1
:104BA000072BC2E900652C902B9300F311813B7811
:104BB0000832002DB4BF1D465D1B002D0BDC1E44CA
:104BC000129BB8F1000FD1D1002B00F0F981129B9C
:104BD000013B1293CEE7102D40F3C5842B9910248E
:104BE0000B4604E0103D102D02F1080216DD0133E2
:104BF00020491030072BCDE92B30C2E90014F1DD3C
:104C0000514648462AAA02F03BFD00287FF4A6AB95
:104C1000DDE92B30103D102D2DAAE8DC19464B1C88
:104C200014492844072BCDE92B30C2E9001500F3C5
:104C300015823B7808321E44C2E7079BDA0640F132
:104C400084800E9B002553F8044B0E93FEE65146DC
:104C500048462AAA02F014FD00287FF47FAB2C9866
:104C60002DAA92E767666666009800081498000807
:104C700028980008449800080022089BCDF81CB032
:104C800003F480630C96CDF834A09346CA461E46C2
:104C9000C14656AFDDF868800BE00A2200232046AB
:104CA0002946FBF75FFF002D08BF0A2C1BD30446E3
:104CB0000D460A22002320462946FBF753FF3032D7
:104CC00007F8012C0BF1010B013F002EE5D098F8FD
:104CD00000309B45E1D1BBF1FF0FDED0002D08BFB6
:104CE0000A2C80F02881CDF86880CDF84CB0C846F9
:104CF0000C9ED146DDF81CB0DDF834A0FFF79FBB59
:104D0000514648462AAA1E9302F0BAFC00287FF4B6
:104D100025AB9DF88B202C9C1E9B0DF1B408FFF752
:104D20004AB801202B9BC54903440444072BCDE915
:104D30002B34C8E900103FF7DFAB08F10808FFF794
:104D4000E7BBD146B346FFF70ABB079B5B0640F1C2
:104D5000CB800E9B002553F8044B0E93A4B275E64E
:104D6000514648462AAA02F08BFC00287FF4F6AA96
:104D70002C9C0DF1B408FFF73ABAD146DA46DDF8BB
:104D800024B001350F9B3444072DCDE92B54C8E9DD
:104D900000367FF724AB514648462AAA02F070FC41
:104DA00000287FF4DBAADDE92B540DF1B408FFF7EE
:104DB00018BBA34A2B9B0F9201330F9A2C44072B4D
:104DC000CDE92B34C8E900257FF72DA8FFF7C2BB3A
:104DD000514648462AAA02F053FC00287FF4BEAA96
:104DE0003B782C982DAAE4E6514648462AAA02F0C0
:104DF00047FC00287FF4B2AA2C9C0DF1B408FEF702
:104E0000FDBF0E9B0A9953F8042B5F4611600E9369
:104E1000FFF72AB82B9B1799013318980C44072BDE
:104E2000C8E900012C942B9300F3AC8008F108082A
:104E3000002ABFF685AB5542103280F2D38351462B
:104E40007F4ACA4609971026174689460F9205E001
:104E500008F10808103D102D40F3AA8201331034E8
:104E6000072BCDE92B34C8E90076F1DD49465046E1
:104E70002AAA02F005FC002840F05F82DDE92B340D
:104E80000DF1B408E6E7384602F098FB2B460246DF
:104E90000995FFF794B8079B002513F4007F0E9B3C
:104EA00053F8044B0E9318BFE4B2FEF71BBF0E9AE3
:104EB000089B52F8044B13F4007F4FF000054FF0AD
:104EC00001030E9218BFE4B2FEF711BF079B13F463
:104ED000007F0E9B53F8044B18BF64B2E5170E9386
:104EE00022462B46FEF7D4BE079B002513F4007F15
:104EF0000E9B53F8044B0E9318BFE4B2A6E5504B3B
:104F00002B9A0F93FFF715BA2D231A468DF88B3085
:104F1000FEF7EEBF4A46D1469246099F01330F9AEB
:104F20002C44072BCDE92B34C8E900253BDC08F1E4
:104F30000808FFF78CBB1D9B1C99FF1A1A463846C0
:104F400002F06AFB98F801300BB108F101080A225F
:104F5000002320462946FBF705FE4FF0000BA6E68E
:104F6000139ABD18AD1BD31A9D42A8BF1D46FFF76B
:104F7000A0BB0E9B0A9953F8042B5F4611800E9339
:104F8000FEF772BF514648462AAA02F079FB002874
:104F90007FF4E4A9DDE92B34249A0DF1B40847E746
:104FA0000623099382E4514648462AAA02F068FB88
:104FB00000287FF4D3A92C9C0DF1B408FFF747BB60
:104FC000139B1A970F9F9046FB189E42324628BFAC
:104FD0001A4604461646DDF830B0FFF73FBB249B67
:104FE000D81C109302DB099A934204DD023E26F09E
:104FF000200308939BE4109B13998B42C0F27A81A3
:10500000EA0740F18382179A13440C936E0540F12E
:105010007782109B002B00F3108267260C9B23EAFB
:10502000E3730893002312931693E4E42D220023E4
:105030008DF88B200993FEF770BF00BF30980008F1
:1050400044980008289BA342BFF465AC30215A1C49
:1050500028921970289B9C42F9D85CE45146484636
:105060002AAA02F00DFB00287FF478A93B782C983F
:105070002DAA1E44A4E5514648462AAA02F000FB88
:1050800000287FF46BA92C9C0DF1B408FFF7D7BA68
:10509000514648462AAA02F0F3FA00287FF45EA996
:1050A000249B2C9C0DF1B408FFF7EEBA099C28A9AB
:1050B000CDE90004049125A824A9CDE902104846B1
:1050C00000F04EFB472D074619D1079D2B46DB0705
:1050D00000F12A81129A289B0792472208921AE42B
:1050E0000320099C28A9CDE90004049125A824A93E
:1050F000CDE902100F9B484600F032FB0746099BA2
:10510000462D07EB03047FF4F9AB3B78302B00F01E
:105110001C82249B129A079D1C440792FFF7F1BB47
:10512000DDE92B21FFF7C3B9099B9DF88B2008937C
:105130000C9309900E94129016901090FEF7EABE10
:10514000249A002A109240F31B82099905F001036A
:105150000B4340F09A816626109B0C936A0500F180
:105160006D810C9B23EAE37308935BE75146484645
:105170002AAA02F085FA00287FF4F0A8249B139A4B
:105180002C9C0DF1B408D31AFFF793BA30238DF895
:105190008C3058238DF88D30079B43F00204099B17
:1051A000632B00F3F28000233DAF0D93079BDDE9F5
:1051B000141243F4817312931346002B26F020053A
:1051C0000794C0F28D800F93002308950C911E93D5
:1051D000612E00F07D81412E7FF477AB24AA0C98DC
:1051E0000F9902F0A1F900224FF07F53FBF76CF901
:1051F00004460D4600220023CDE91045FBF76AFC6A
:1052000008B101232493AE4B0C93099BCDF83CB01D
:10521000013B1396CDF87C90CDF880A02197BA463B
:10522000DDE910679946DDF830B0CDF8588006E02A
:1052300000220023FBF74EFC09F1FF39E8B90022F8
:10524000A04B30463946FBF73FF90D460446FBF7C5
:105250004DFB8046FBF7CEF80B460246294620461A
:10526000FAF77AFF1BF80830B9F1FF3F55460646BA
:105270000F464C460AF8013BDAD130463946002247
:10528000914BDDF83CB0139ECDF83CA0CDF84C809E
:10529000CDE91001DDE91F9ADDF85880219FFBF769
:1052A00041FC002855D1DDE910010022864BFBF7B7
:1052B00011FC10B1139BDB074BD4002C08DB302210
:1052C0000F99631C0B4401F8012B8B42FBD10F910A
:1052D0000F9B079DDB1B1393129B0793FFF71DBBCF
:1052E00008952D23DDE914121E9302F100430C9161
:1052F0000F936DE7139B179A9A18109B0C92002B33
:1053000040F31A81672629E700230993FEF72BBC97
:10531000484651462AAA02F0B3F9BAF80C30FEF713
:10532000AEBD2B9BFFF75FB9099B079DFC18129B35
:10533000079347230893FFF7E4BACB46D146FFF71C
:105340000EB8D146FFF70BB8604B2B9A0F93FEF7C0
:10535000B7BF0F9B0C99289513F8012CC97B8A4283
:1053600040F02A81302003F8010C289B5A1E289215
:1053700013F8012C9142F6D0392A0BBF0C9A013256
:10538000927AD2B203F8012CA2E74846591C01F0E8
:10539000A1FA0746002800F01D810D9006E7302392
:1053A0008DF88C307823F5E6079B0893FFF794B8C7
:1053B0004A46D1469246099F01330F9A2C44072B47
:1053C000CDE92B34C8E900257FF7B8A851464846F7
:1053D0002AAA02F055F900287EF4C0AFDDE92B348B
:1053E0000DF1B408FFF7ACB8002B08BF01230993F7
:1053F000079B43F480731293159B002B0C93C0F210
:10540000BD800224099D28A825AA24ABCDE903204C
:10541000CDE90045DDE91445029322462B46484676
:105420001E9100F09DF90C9B07460F931E9B0C9458
:105430000D934AE600230D9353E767261A990B78DC
:10544000FF2B00F0DE800024109A204603E001309C
:105450000131FF2B08D0934206DAD21A4B78002B89
:10546000F5D10B780134F4E71A911092169012944A
:10547000129A169B0C9913441D9A02FB03130C936A
:1054800023EAE3730893FFF7B6BA179B6626D3188F
:1054900019440C9162E606F10F020121D2B2FFF726
:1054A0004FBA002967D130228DF89A200DF19B0266
:1054B000303302F8013B26ABD31A1B93FFF783BAB4
:1054C00014980008000030400000E03F44980008B5
:1054D00024AA0C980F9902F027F800224FF07F536E
:1054E000FAF7F2FF04460D4600220023CDE91045ED
:1054F000FBF7F0FA08B101232493444B0C9384E6A4
:1055000067262EE6BAF80C30FEF7B9BC109B0C9358
:105510007CE5159B0320002BB8BF2D234FF0000125
:10552000BABF1A468DF88B309DF88B20384F394B17
:1055300008900D91FEF7E2BCC3F101031A4422EA80
:10554000E27367260C9208936CE5002200230C9806
:105550000F99FBF7BFFA00287FF4DBAD099BC3F17D
:1055600001032493D6E52B99FFF759BBE9077FF593
:1055700035AAFFF72FBA0DF19A0299E70D90B0E620
:10558000099A05F0010513462B4304D10123662631
:1055900008930C9346E5179B662601331A4422EACA
:1055A000E2730C9208933DE51B4B0F93FFF7E9BBA9
:1055B000194A2B9B0F92B1E40F9BDDE60E9B9BF8E3
:1055C000016053F8040B934640EAE07009900E9393
:1055D000FEF7C7BABAF80C3043F04003AAF80C3013
:1055E000FEF74DBC0C4A0F92E6E60C234FF0FF325B
:1055F000C9F800300A92FEF749BC02231B93FFF75B
:10560000E2B900231293169332E700BF0098000816
:10561000F8970008FC97000844980008024B13B163
:10562000024800F005B8704700000000ED65000872
:10563000002301461A46184602F09EB82DE9F04FA5
:1056400003690D6983B0AB42C0F28480013D01F172
:10565000140600F1140956F8253059F825200133B5
:105660008E46A90000919A4209EB85018246B2FB61
:10567000F3F706EB8508019137D30022B4461446B0
:1056800048465CF8043B01681FFA83FB07FB0B22CA
:105690001B0C4FEA124B07FB03BB93B2E31A8AB20F
:1056A0001FFA8BF41344C4EB114404EB23449BB264
:1056B00043EA0443E04540F8043B4FEA24444FEA00
:1056C0001B42DED2009B59F8033073B9019B043BA7
:1056D000994504D307E0994505F1FF3503D253F806
:1056E0000429002AF7D0CAF810507146504601F03C
:1056F0000DFE00282ADB48460023013756F8041B1C
:1057000004688AB29A1A0B0CA1B20A44C3EB144380
:1057100003EB224392B242EA0342B04540F8042B25
:105720004FEA2343EAD259F8252009EB85036AB9E9
:10573000043B994504D307E0994505F1FF3503D2B1
:1057400053F80429002AF7D0CAF81050384603B09D
:10575000BDE8F08F002003B0BDE8F08F000000002E
:105760002DE9F04F16461F46016C9BB00446CDE96B
:105770000467279D41B10123426C9340C1E9012395
:1057800001F0C8FB00232364B7F10009B4BF012373
:1057900000232B60764BBCBF29F00049CDF8149054
:1057A00033EA090300F0AB80DDE904231046194613
:1057B00000220023CDE90601FBF78CF9804670B189
:1057C0000123269A1360289B002B00F0C5826948AC
:1057D0001860431E039303981BB0BDE8F08F18AA0E
:1057E00019ABCDE90032DDE90623204601F048FE81
:1057F0005FEA1955824640F09880DDE918854544F6
:1058000005F23240202840F38983C0F1400305F2BD
:10581000124009FA03F926FA00F049EA0000FAF703
:10582000D9FD0122013D1092A1F1F8710022524BE5
:10583000FAF792FC48A3D3E90023FAF745FE48A300
:10584000D3E90023FAF78AFC064628460F46FAF702
:10585000D1FD45A3D3E90023FAF736FE02460B46F5
:1058600030463946FAF77AFC06460F46FBF73EF813
:1058700000228346002330463946FBF735F90028DD
:1058800040F05D82BBF1160F00F24B82DDE90601AC
:105890003A4B03EBCB03D3E90023FBF725F90028B0
:1058A00072D00023A8EB0505B5F101090BF1FF3B10
:1058B0000D9300F13E8200230993BBF1000F6BDAD8
:1058C000099BCDF820B0A3EB0B030993CBF10003A8
:1058D0000C93249B4FF0000B092B65D8052B40F34C
:1058E0001B830025043B2493249B023B032B00F2E3
:1058F0006286DFE813F03B0438042F040F0442F201
:105900000F73269AC9F31309136059EA06031CD1D1
:10591000289B002B00F04686194B03930833289AE6
:10592000039813601BB0BDE8F08FDDE90612C2F3E7
:105930001303084643F07F51CDF84080A5F2FF35B0
:10594000DDF8608041F4401170E7289B002B40F0A7
:10595000D1830C4B03933EE761436F63A787D23F2C
:10596000B3C8608B288AC63FFB799F501344D33F4E
:105970000000F07F319800080000F83F9098000880
:105980005898000854980008A8EB0505B5F10109DE
:1059900000F196840D90099000230C93249BD94428
:1059A000092BCDF820B099D94FF0FF3601250023FF
:1059B000CDE90A6524932593002111966164204660
:1059C00001F082FA0E2E0390206400F2F280002D86
:1059D00000F0EF800899002940F34084B94B01F0B2
:1059E0000F0203EBC203CA054FEA2115D3E9006792
:1059F00040F1DB83DDE90601B34B05F00F05D3E988
:105A00000823FAF78BFE0323CDE912010E93A5B10B
:105A10001494DFF8B4820E9CEB0708D5D8E9002374
:105A200030463946FAF750FD06460F4601346D10F0
:105A300008F10808F0D10E94149C3B46DDE91201F0
:105A40003246FAF76BFE074688460D9B43B10022AB
:105A5000384641469D4BFBF747F8002840F02E851D
:105A60000E98FAF7C7FC3A464346FAF72DFD984BD5
:105A70000022FAF773FBA1F15073CDE90E010F93E9
:105A80000A9B002B00F0CC83089B14930A9B129373
:105A90000B9B002B00F09684129A8A4B002003EB9C
:105AA000C20353E902238B49FAF738FEDDE90E23DE
:105AB000FAF752FB02460B4638464146CDE90E2323
:105AC000FAF714FF1590FAF795FC02460B46384694
:105AD0004146FAF741FB159B039D303306460F46BE
