:020000040800F2
:1000000000500020091E00082D1D0008391D0008A1
:100010003F1D0008451D00084B1D000800000000A2
:10002000000000000000000000000000511D00085A
:100030005D1D000800000000691D0008751D000816
:10004000511E0008511E0008511E0008511E0008D4
:10005000511E0008511E0008511E0008511E0008C4
:10006000511E0008511E0008511E0008511E0008B4
:10007000511E0008511E0008511E0008511E0008A4
:10008000511E0008511E0008511E0008511E000894
:10009000511E0008511E0008511E0008511E000884
:1000A000511E0008511E0008511E0008511E000874
:1000B000511E0008511E0008511E0008511E000864
:1000C000511E0008511E0008511E0008511E000854
:1000D000511E0008511E0008511E0008511E000844
:1000E000811D0008511E0008511E0008000000007C
:1000F0000000000000000000000000000000000000
:0C01000000000000000000005FF808F1A3
:10010C0010B5054C237833B9044B13B10448AFF345
:10011C0000800123237010BD540400200000000057
:10012C001C20000808B5034B1BB103490348AFF36F
:10013C00008008BD00000000580400201C200008AE
:10014C0080B500AF084B1B68074A43F010031360DF
:10015C00032000F047F9002000F008F801F070FDD2
:10016C000023184680BD00BF0020024080B582B03D
:10017C0000AF7860124B1A68124B1B7819464FF47B
:10018C007A73B3FBF1F3B2FBF3F3184600F05FF9AB
:10019C000346002B01D001230EE07B680F2B0AD8FD
:1001AC00002279684FF0FF3000F027F9064A7B688F
:1001BC001360002300E0012318460837BD4680BDBC
:1001CC0020000020040000200000002080B400AFBC
:1001DC00054B1B781A46054B1B681344034A1360E6
:1001EC0000BFBD4680BC7047040000207004002096
:1001FC0080B400AF024B1B681846BD4680BC7047EC
:10020C007004002080B584B000AF7860FFF7F0FF79
:10021C00B8607B68FB60FB68B3F1FF3F05D00A4B0D
:10022C001B781A46FB681344FB6000BFFFF7E0FF26
:10023C000246BB68D31AFA689A42F7D800BF00BFCF
:10024C001037BD4680BD00BF0400002080B485B0CF
:10025C0000AF78607B6803F00703FB600C4BDB6836
:10026C00BB60BA684FF6FF031340BB60FB681A0211
:10027C00BB68134343F0BF6343F40033BB60044AD1
:10028C00BB68D36000BF1437BD4680BC704700BF4D
:10029C0000ED00E080B400AF044BDB681B0A03F0F8
:1002AC0007031846BD4680BC704700BF00ED00E058
:1002BC0080B483B000AF0346FB7197F90730002B75
:1002CC000BDBFB7903F01F02064997F907305B093A
:1002DC00012000FA02F241F8232000BF0C37BD4682
:1002EC0080BC704700E100E080B483B000AF0346EF
:1002FC003960FB7197F90730002B0ADB3B68DAB2E7
:10030C000C4997F907301201D2B20B4483F8002341
:10031C000AE03B68DAB20849FB7903F00F03043BAF
:10032C001201D2B20B441A7600BF0C37BD4680BC0A
:10033C00704700BF00E100E000ED00E080B489B040
:10034C0000AFF860B9607A60FB6803F00703FB61EB
:10035C00FB69C3F10703042B28BF0423BB61FB69B2
:10036C000433062B02D9FB69033B00E000237B61BD
:10037C004FF0FF32BB6902FA03F3DA43BB681A4051
:10038C007B699A404FF0FF317B6901FA03F3D94343
:10039C007B680B40134318462437BD4680BC70471E
:1003AC0080B582B000AF78607B68013BB3F1807F91
:1003BC0001D301230FE00A4A7B68013B53600F21F4
:1003CC004FF0FF30FFF790FF054B00229A60044B73
:1003DC0007221A60002318460837BD4680BD00BFAF
:1003EC0010E000E080B582B000AF78607868FFF76D
:1003FC002DFF00BF0837BD4680BD80B586B000AF6D
:10040C000346B9607A60FB7300237B61FFF742FF00
:10041C0078617A68B9687869FFF790FF024697F9B6
:10042C000F3011461846FFF75FFF00BF1837BD4667
:10043C0080BD80B582B000AF0346FB7197F90730E1
:10044C001846FFF735FF00BF0837BD4680BD80B5A5
:10045C0082B000AF78607868FFF7A2FF03461846B9
:10046C000837BD4680BD000080B48BB000AF78600B
:10047C00396000237B6200233B6269E101227B6AC5
:10048C0002FA03F3FB613B681B68FA691340BB611A
:10049C00BA69FB699A4240F058813B685B689A4A9A
:1004AC0093425ED0984A934275D8984A934258D05A
:1004BC00964A93426FD8964A934252D0944A9342AA
:1004CC0069D8944A93424CD0924A934263D8924A48
:1004DC00934246D0904A93425DD8122B2AD8122BC5
:1004EC0059D801A252F823F06F05000849050008FD
:1004FC005B0500089D050008A3050008A30500087E
:10050C00A3050008A3050008A3050008A30500081F
:10051C00A3050008A3050008A3050008A30500080F
:10052C00A3050008A3050008A30500085105000851
:10053C0065050008794A934213D02CE03B68DB68D0
:10054C003B6229E03B68DB6804333B6224E03B6898
:10055C00DB6808333B621FE03B68DB680C333B62B3
:10056C001AE03B689B68002B02D104233B6213E02A
:10057C003B689B68012B05D108233B627B68FA69B9
:10058C001A6109E008233B627B68FA695A6103E04F
:10059C0000233B6200E000BFBB69FF2B01D87B68E6
:1005AC0001E07B6804337B61BB69FF2B02D87B6A5B
:1005BC009B0002E07B6A083B9B003B617B691A68ED
:1005CC000F213B6901FA03F3DB431A40396A3B699B
:1005DC0001FA03F31A437B691A603B685B6803F00A
:1005EC008053002B00F0B1804D4B9B694C4A43F07B
:1005FC00010393614A4B9B6903F00103BB60BB6829
:10060C00484A7B6A9B08023352F82330FB607B6AB2
:10061C0003F003039B000F2202FA03F3DB43FA6897
:10062C001340FB607B68404A934213D07B683F4A7F
:10063C0093420DD07B683E4A934207D07B683D4A7B
:10064C00934201D1032306E0042304E0022302E0D9
:10065C00012300E000237A6A02F003029200934027
:10066C00FA681343FB602F497B6A9B080233FA68D4
:10067C0041F823203B685B6803F48033002B06D0E1
:10068C002D4B1A682C49BB6913430B6006E02A4BAF
:10069C001A68BB69DB43284913400B603B685B68F5
:1006AC0003F40033002B06D0234B5A682249BB6954
:1006BC0013434B6006E0204B5A68BB69DB431E4971
:1006CC0013404B603B685B6803F48013002B06D02F
:1006DC00194B9A681849BB6913438B6006E0164B9B
:1006EC009A68BB69DB43144913408B603B685B68B9
:1006FC0003F40013002B21D00F4BDA680E49BB69B1
:10070C001343CB6021E000BF000032100000311019
:10071C000000221000002110000012100000111027
:10072C00001002400000014000080140000C014094
:10073C000010014000140140000401400B4BDA682A
:10074C00BB69DB4309491340CB607B6A01337B6295
:10075C003B681A687B6A22FA03F3002B7FF48EAE97
:10076C0000BF00BF2C37BD4680BC70470004014061
:10077C0080B483B000AF78600B467B8013467B70EF
:10078C007B78002B03D07A887B681A6103E07B8826
:10079C001A047B681A6100BF0C37BD4680BC7047D9
:1007AC0080B582B000AF0346FB80084B5A69FB88CA
:1007BC001340002B06D0054AFB885361FB88184672
:1007CC0000F00CFE00BF0837BD4680BD00040140A0
:1007DC0080B586B000AF78607B68002B01D1012317
:1007EC006CE27B681B6803F00103002B00F0878030
:1007FC00924B5B6803F00C03042B0CD08F4B5B68A3
:10080C0003F00C03082B12D18C4B5B6803F4803380
:10081C00B3F5803F0BD1894B1B6803F40033002BDD
:10082C006CD07B685B68002B68D1012346E27B6847
:10083C005B68B3F5803F06D1804B1B687F4A43F45D
:10084C00803313602EE07B685B68002B0CD17B4BF4
:10085C001B687A4A23F480331360784B1B68774A01
:10086C0023F4802313601DE07B685B68B3F5A02F35
:10087C000CD1724B1B68714A43F4802313606F4B8D
:10088C001B686E4A43F4803313600BE06B4B1B68A0
:10089C006A4A23F480331360684B1B68674A23F45D
:1008AC00802313607B685B68002B13D0FFF7A0FCE0
:1008BC00386108E0FFF79CFC02463B69D31A642BB5
:1008CC0001D90323FAE15D4B1B6803F40033002BC1
:1008DC00F0D014E0FFF78CFC386108E0FFF788FCDF
:1008EC0002463B69D31A642B01D90323E6E1534B2F
:1008FC001B6803F40033002BF0D100E000BF7B68D1
:10090C001B6803F00203002B63D04C4B5B6803F0B5
:10091C000C03002B0BD0494B5B6803F00C03082B2A
:10092C001CD1464B5B6803F48033002B16D1434B30
:10093C001B6803F00203002B05D07B681B69012B9D
:10094C0001D00123BAE13D4B1B6823F0F8027B6810
:10095C005B69DB00394913430B603AE07B681B6928
:10096C00002B20D0364B01221A60FFF741FC386176
:10097C0008E0FFF73DFC02463B69D31A022B01D974
:10098C0003239BE12D4B1B6803F00203002BF0D0DB
:10099C002A4B1B6823F0F8027B685B69DB00274954
:1009AC0013430B6015E0264B00221A60FFF720FC66
:1009BC00386108E0FFF71CFC02463B69D31A022B96
:1009CC0001D903237AE11D4B1B6803F00203002BB2
:1009DC00F0D17B681B6803F00803002B3AD07B68CE
:1009EC009B69002B19D0174B01221A60FFF700FCF2
:1009FC00386108E0FFF7FCFB02463B69D31A022B77
:100A0C0001D903235AE10D4B5B6A03F00203002B5F
:100A1C00F0D0012000F0A6FA1CE00A4B00221A606C
:100A2C00FFF7E6FB38610FE0FFF7E2FB02463B699C
:100A3C00D31A022B08D9032340E100BF0010024057
:100A4C0000004242800442429E4B5B6A03F0020368
:100A5C00002BE9D17B681B6803F00403002B00F02A
:100A6C00A6800023FB75974BDB6903F08053002BAA
:100A7C000DD1944BDB69934A43F08053D361914B76
:100A8C00DB6903F08053BB60BB680123FB758E4BA5
:100A9C001B6803F48073002B18D18B4B1B688A4A9C
:100AAC0043F480731360FFF7A3FB386108E0FFF792
:100ABC009FFB02463B69D31A642B01D90323FDE04B
:100ACC00814B1B6803F48073002BF0D07B68DB68D0
:100ADC00012B06D17B4B1B6A7A4A43F0010313624C
:100AEC002DE07B68DB68002B0CD1764B1B6A754ABA
:100AFC0023F001031362734B1B6A724A23F0040345
:100B0C0013621CE07B68DB68052B0CD16D4B1B6AF8
:100B1C006C4A43F0040313626A4B1B6A694A43F044
:100B2C00010313620BE0674B1B6A664A23F0010357
:100B3C001362644B1B6A634A23F0040313627B68E1
:100B4C00DB68002B15D0FFF753FB38610AE0FFF789
:100B5C004FFB02463B69D31A41F28832934201D9CA
:100B6C000323ABE0574B1B6A03F00203002BEED0C0
:100B7C0014E0FFF73DFB38610AE0FFF739FB024652
:100B8C003B69D31A41F28832934201D9032395E091
:100B9C004C4B1B6A03F00203002BEED1FB7D012BA7
:100BAC0005D1484BDB69474A23F08053D3617B68FE
:100BBC00DB69002B00F08180424B5B6803F00C0377
:100BCC00082B61D07B68DB69022B46D13F4B00229E
:100BDC001A60FFF70DFB386108E0FFF709FB0246CE
:100BEC003B69D31A022B01D9032367E0354B1B68F1
:100BFC0003F00073002BF0D17B681B6AB3F5803FC8
:100C0C0008D1304B5B6823F400327B689B682D491C
:100C1C0013434B602B4B5B6823F474127B68196A8B
:100C2C007B685B6A0B43274913434B60274B0122BC
:100C3C001A60FFF7DDFA386108E0FFF7D9FA0246CF
:100C4C003B69D31A022B01D9032337E01D4B1B68D8
:100C5C0003F00073002BF0D02FE01C4B00221A6025
:100C6C00FFF7C6FA386108E0FFF7C2FA02463B69A3
:100C7C00D31A022B01D9032320E0124B1B6803F07B
:100C8C000073002BF0D118E07B68DB69012B01D1DC
:100C9C00012313E00B4B5B68FB60FB6803F48032B1
:100CAC007B681B6A9A4206D1FB6803F470127B685E
:100CBC005B6A9A4201D0012300E0002318461837E2
:100CCC00BD4680BD001002400070004060004242F2
:100CDC0080B584B000AF786039607B68002B01D19F
:100CEC000123D0E06A4B1B6803F007033A689A4271
:100CFC0010D9674B1B6823F0070265493B68134307
:100D0C000B60634B1B6803F007033A689A4201D0EF
:100D1C000123B8E07B681B6803F00203002B20D092
:100D2C007B681B6803F00403002B05D0594B5B68F0
:100D3C00584A43F4E06353607B681B6803F0080374
:100D4C00002B05D0534B5B68524A43F460535360FD
:100D5C00504B5B6823F0F0027B689B684D49134352
:100D6C004B607B681B6803F00103002B40D07B6851
:100D7C005B68012B07D1474B1B6803F40033002B36
:100D8C0015D101237FE07B685B68022B07D1414BB7
:100D9C001B6803F00073002B09D1012373E03D4B5A
:100DAC001B6803F00203002B01D101236BE0394BCC
:100DBC005B6823F003027B685B68364913434B6026
:100DCC00FFF716FAF8600AE0FFF712FA0246FB6822
:100DDC00D31A41F28832934201D9032353E02D4BAD
:100DEC005B6803F00C027B685B689B009A42EBD15A
:100DFC00274B1B6803F007033A689A4210D2244B26
:100E0C001B6823F0070222493B6813430B60204BFD
:100E1C001B6803F007033A689A4201D0012332E0C1
:100E2C007B681B6803F00403002B08D0194B5B682C
:100E3C0023F4E0627B68DB68164913434B607B68E4
:100E4C001B6803F00803002B09D0124B5B6823F4DA
:100E5C0060527B681B69DB000E4913434B6000F04A
:100E6C0021F802460B4B5B681B0903F00F030A4980
:100E7C00CB5C22FA03F3094A1360094B1B68184632
:100E8C00FFF774F9002318461037BD4680BD00BF2C
:100E9C000020024000100240343B000820000020DB
:100EAC000000002090B48AB000AF2A4B3C1D0FCB41
:100EBC0084E80F0040F201233B800023FB610023F8
:100ECC00BB6100237B6200237B6100233B62224BCE
:100EDC005B68FB61FB6903F00C03042B02D0082B4D
:100EEC0003D02DE01D4B3B622DE0FB699B0C03F006
:100EFC000F0307F12802134413F8243C7B61FB69B0
:100F0C0003F48033002B13D0134B5B685B0C03F0A2
:100F1C00010307F12802134413F8283CBB617B69D9
:100F2C000E4A02FB03F2BB69B2FBF3F37B6204E0F3
:100F3C007B690B4A02FB03F37B627B6A3B6202E038
:100F4C00064B3B6200BF3B6A18462837BD4690BC37
:100F5C00704700BF342000080010024000127A00D5
:100F6C0000093D0080B485B000AF78600A4B1B6867
:100F7C000A4AA2FB03235B0A7A6802FB03F3FB60B9
:100F8C0000BFFB685A1EFA60002BF9D100BF00BFEE
:100F9C001437BD4680BC704720000020D34D621032
:100FAC0080B582B000AF78607B68002B01D1012343
:100FBC0053E07B6800229A627B6893F85130DBB275
:100FCC00002B06D17B68002283F85020786800F053
:100FDC0069FE7B68022283F851207B681B681A68C3
:100FEC007B681B6822F040021A607B685A687B6839
:100FFC009B681A437B68DB681A437B681B691A433E
:10100C007B685B691A437B689B6903F400731A4322
:10101C007B68DB691A437B681B6A42EA03017B68C5
:10102C009A6A7B681B680A431A607B689B691A0C76
:10103C007B681B6802F004025A607B681B68DA69E3
:10104C007B681B6822F40062DA617B6800225A65B7
:10105C007B68012283F85120002318460837BD46CF
:10106C0080BD80B588B000AFF860B9603B601346B6
:10107C00FB800023FB77FB6893F85030012B01D1E8
:10108C0002231EE1FB68012283F85020FFF7B0F821
:10109C00B861FB88FB82FB6893F85130DBB2012B03
:1010AC0002D00223FB7703E1BB68002B02D0FB8844
:1010BC00002B02D10123FB77FAE0FB68032283F8B3
:1010CC005120FB6800225A65FB68BA681A63FB68FA
:1010DC00FA889A86FB68FA88DA86FB6800229A639B
:1010EC00FB6800229A87FB680022DA87FB680022E3
:1010FC005A64FB6800221A64FB689B68B3F5004FC6
:10110C0007D1FB681B681A68FB681B6842F48042B5
:10111C001A60FB681B681B6803F04003402B07D068
:10112C00FB681B681A68FB681B6842F040021A6077
:10113C00FB68DB68B3F5006F4BD1FB685B68002B79
:10114C0002D0FB8A012B3ED1FB681B6B1A88FB6813
:10115C001B68DA60FB681B6B9A1CFB681A63FB68E4
:10116C00DB8E9BB2013B9AB2FB68DA862BE0FB6804
:10117C001B689B6803F00203022B12D1FB681B6BEC
:10118C001A88FB681B68DA60FB681B6B9A1CFB688F
:10119C001A63FB68DB8E9BB2013B9AB2FB68DA8662
:1011AC0011E0FFF725F80246BB69D31A3A689A4258
:1011BC0003D83B68B3F1FF3F02D13B68002B02D14F
:1011CC000323FB7774E0FB68DB8E9BB2002BCED144
:1011DC004CE0FB685B68002B02D0FB8A012B40D1F2
:1011EC00FB681A6BFB681B680C3312781A70FB686F
:1011FC001B6B5A1CFB681A63FB68DB8E9BB2013BB2
:10120C009AB2FB68DA862CE0FB681B689B6803F0DB
:10121C000203022B13D1FB681A6BFB681B680C339F
:10122C0012781A70FB681B6B5A1CFB681A63FB68FC
:10123C00DB8E9BB2013B9AB2FB68DA8611E0FEF7BB
:10124C00D7FF0246BB69D31A3A689A4203D83B6867
:10125C00B3F1FF3F02D13B68002B02D10323FB7794
:10126C0026E0FB68DB8E9BB2002BCDD1BA693968C6
:10127C00F86800F094F80346002B02D0FB6820229B
:10128C005A65FB689B68002B0AD100233B61FB6805
:10129C001B68DB683B61FB681B689B683B613B69B7
:1012AC00FB685B6D002B02D00123FB7700E000BFD5
:1012BC00FB68012283F85120FB68002283F8502040
:1012CC00FB7F18462037BD4680BD80B584B000AF8B
:1012DC00F860B9603B601346FB714CE03B68B3F1BE
:1012EC00FF3F48D0FEF784FF0246BB69D31A3A6829
:1012FC009A4202D93B68002B3DD1FB681B685A68A7
:10130C00FB681B6822F0E0025A60FB685B68B3F56F
:10131C00827F11D1FB689B68B3F5004F04D0FB684A
:10132C009B68B3F5806F07D1FB681B681A68FB6874
:10133C001B6822F040021A60FB689B6AB3F5005FE1
:10134C000FD1FB681B681A68FB681B6822F40052FB
:10135C001A60FB681B681A68FB681B6842F4005231
:10136C001A60FB68012283F85120FB68002283F885
:10137C00502003230FE0FB681B689A68BB6813407E
:10138C00BA689A420CBF01230023DBB21A46FB79E0
:10139C009A42A3D1002318461037BD4680BD80B5B4
:1013AC0086B002AFF860B9607A607B680093BB6866
:1013BC0000228021F868FFF788FF0346002B07D036
:1013CC00FB685B6D43F02002FB685A65032300E069
:1013DC00002318461037BD4680BD000080B483B092
:1013EC0000AF0346FB80FB88B3F5005F03D0B3F579
:1013FC00804F0ED01AE0104B1B68002B13DB0E4BEA
:10140C001B681D2B0FDC0C4B1B6801330A4A136045
:10141C0009E0094B1B68002B07DD074B1B68013BE0
:10142C00054A136001E000BF00E000BF00BF0C37AD
:10143C00BD4680BC704700BFCC04002080B500AF17
:10144C00184B00221A60184B184A1A60164B3C2293
:10145C005A60154B4B229A60134B5A22DA60124B8E
:10146C00134A1A61104B64225A610F4B78229A610D
:10147C000D4B8C22DA61FEF763FE00F01BF800F0D6
:10148C0095F800F05DF800F0FDF900F019F94FF453
:10149C00FA70FEF7B7FE034B1B68184600F058F9BC
:1014AC00F9E700BFCC040020D00400204420000841
:1014BC005020000880B590B000AF07F11803282227
:1014CC000021184600F0E4FC3B1D00221A605A6013
:1014DC009A60DA601A610123BB614FF48033FB61BF
:1014EC0000233B620123BB6202237B634FF48033F6
:1014FC00BB634FF4E013FB6307F118031846FFF7C7
:10150C0067F90346002B01D000F0D4F80F237B6061
:10151C000223BB600023FB604FF480633B6100231C
:10152C007B613B1D02211846FFF7D2FB0346002BC3
:10153C0001D000F0BFF800BF4037BD4680BD0000B1
:10154C0080B500AF174B184A1A60164B4FF48272D5
:10155C005A60144B00229A60124B0022DA60114B35
:10156C0002221A610F4B01225A610E4B4FF400728A
:10157C009A610C4B0822DA610A4B00221A62094B61
:10158C0000225A62074B00229A62064B0A22DA6248
:10159C000448FFF705FD0346002B01D000F08AF844
:1015AC0000BF80BD740400200030014080B588B0BD
:1015BC0000AF07F1100300221A605A609A60DA60DB
:1015CC00384B9B69374A43F010039361354B9B6949
:1015DC0003F01003FB60FB68324B9B69314A43F00C
:1015EC00200393612F4B9B6903F02003BB60BB6806
:1015FC002C4B9B692B4A43F004039361294B9B6949
:10160C0003F004037B607B68264B9B69254A43F0FF
:10161C0008039361234B9B6903F008033B603B6811
:10162C0000224FF400512048FFF7A2F80022382185
:10163C001E48FFF79DF84FF400533B6101237B617B
:10164C000023BB610223FB6107F110031946164806
:10165C00FEF70AFF4FF4E0433B61154B7B6101231E
:10166C00BB6107F1100319461048FEF7FDFE382345
:10167C003B6101237B610023BB610223FB6107F10A
:10168C00100319460948FEF7EFFE0022002128201E
:10169C00FEF7B3FE2820FEF7CCFE00BF2037BD4678
:1016AC0080BD00BF0010024000100140000C014042
:1016BC000000211080B400AF00BFBD4680BC704755
:1016CC0080B500AF012000F04BF90021002000F0A4
:1016DC009FFA0A4A002306CA094800F073FA05214A
:1016EC00642000F095FA074A002306CA064800F069
:1016FC0069FA00F057F900BF80BD00BF1800002048
:10170C0058200008080000206420000880B582B032
:10171C0000AF78607B68DBB21946042000F078FAE1
:10172C000A4A002306CA3C2000F0C4F97B68DBB2ED
:10173C001946712000F06CFA044A002306CA3E20B8
:10174C0000F0B8F900BF0837BD4680BD1800002076
:10175C0090B587B000AF7860144A7B681B011344C6
:10176C0007F108040FCB84E80F00012000F0F8F813
:10177C001320FFF7CBFF04210C2000F049FA0C4A90
:10178C00002306CA0B4800F01DFA1321142000F0A8
:10179C003FFAB868084A002306CA00F013FA00F0B2
:1017AC0001F900BF1C37BD4690BD00BFD00400201E
:1017BC00100000206C2000081800002080B500AF3D
:1017CC00012210210A48FEF7D3FF00220821084805
:1017DC00FEF7CEFF0A20FEF715FD01220821044872
:1017EC00FEF7C6FF0A20FEF70DFD00BF80BD00BF4F
:1017FC00000C014080B582B000AF0346FB710022A3
:10180C0010210C48FEF7B4FF002220210948FEF7F6
:10181C00AFFFF91D4FF0FF3301220748FFF721FC02
:10182C00012210210348FEF7A3FF00BF0837BD4675
:10183C0080BD00BF000C01407404002080B582B054
:10184C0000AF78603960002210210C48FEF790FF41
:10185C00012220210948FEF78BFF3B689AB24FF01A
:10186C00FF3379680648FFF7FCFB0122102103487F
:10187C00FEF77EFF00BF0837BD4680BD000C01405F
:10188C007404002080B500AFFFF798FF6420FEF7CA
:10189C00B9FCAE20FFF7AEFF2020FFF7ABFF002016
:1018AC00FFF7A8FFB020FFF7A5FFC820FFF7A2FFA6
:1018BC000020FFF79FFF1020FFF79CFF4020FFF751
:1018CC0099FF8120FFF796FFFF20FFF793FFA120E0
:1018DC00FFF790FFA620FFF78DFFA820FFF78AFFE8
:1018EC003F20FFF787FFA420FFF784FFD320FFF7EB
:1018FC0081FF0020FFF77EFFD520FFF77BFFF02054
:10190C00FFF778FFD920FFF775FF2220FFF772FF52
:10191C00DA20FFF76FFF1220FFF76CFFDB20FFF7D9
:10192C0069FF2020FFF766FF8D20FFF763FF14206F
:10193C00FFF760FFAF20FFF75DFF002000F010F80D
:10194C0000F030F8054B00221A80044B00225A801C
:10195C00024B01225A7100BF80BD00BFB00A0020AB
:10196C0080B485B000AF0346FB710023FB600DE033
:10197C00FB79002B01D1002100E0FF21084AFB6814
:10198C0013440A461A70FB680133FB60FB68B3F51D
:10199C00806FEDD300BF00BF1437BD4680BC7047CD
:1019AC00B006002080B582B000AF0023FB7116E0BA
:1019BC00FB79503BDBB21846FFF71CFF0020FFF70A
:1019CC0019FF1020FFF716FFFB79DB01084A1344BF
:1019DC0080211846FFF732FFFB790133FB71FB794D
:1019EC00072BE5D900BF00BF0837BD4680BD00BF3F
:1019FC00B006002080B483B000AF0346FB710B46E9
:101A0C00BB7113467B7197F90730002B48DBBB7910
:101A1C003F2B45D8254B1B79002B06D07B79002B0F
:101A2C000CBF01230023DBB27B717B79012B1AD114
:101A3C00FA79BB79DB08D8B20346DB0113441C4AA4
:101A4C00D35C5AB2BB7903F00703012101FA03F30B
:101A5C005BB2134359B2FA790346DB011344C9B2A2
:101A6C00134AD1541DE0FA79BB79DB08D8B203468E
:101A7C00DB0113440E4AD35C5AB2BB7903F0070363
:101A8C00012101FA03F35BB2DB435BB2134059B2A1
:101A9C00FA790346DB011344C9B2054AD15400E07C
:101AAC0000BF0C37BD4680BC704700BFB00A002099
:101ABC00B006002090B589B000AF0446381D80E810
:101ACC0006001A462346FB731346BB73FB7B1F2B86
:101ADC0002D9FB7B7E2B01D900236DE0384B1B8890
:101AEC001A463B791344802B06DC354B5B881A462F
:101AFC007B791344402B01DD00235DE00023FB6167
:101B0C004CE0BA68FB7B203B797901FB03F3194667
:101B1C00FB690B445B0013441B887B610023BB6196
:101B2C0034E07A69BB6902FA03F303F40043002B37
:101B3C0012D0234B1B88DAB2BB69DBB21344D8B288
:101B4C001F4B5B88DAB2FB69DBB21344DBB2BA7BA6
:101B5C001946FFF74FFF16E0194B1B88DAB2BB6929
:101B6C00DBB21344D8B2164B5B88DAB2FB69DBB23A
:101B7C001344D9B2BB7B002B0CBF01230023DBB277
:101B8C001A46FFF737FFBB690133BB613B791A4635
:101B9C00BB699342C5D3FB690133FB617B791A4660
:101BAC00FB699342ADD3064B1A883B799BB2134425
:101BBC009AB2034B1A80FB7B18462437BD4690BD66
:101BCC00B00A002080B584B000AFF860381D80E802
:101BDC000600FB7012E0FB681878FB783A1D06CA09
:101BEC00FFF768FF03461A46FB681B789A4202D03F
:101BFC00FB681B7808E0FB680133FB60FB681B7813
:101C0C00002BE8D1FB681B7818461037BD4680BD09
:101C1C0080B483B000AF03460A46FB711346BB7118
:101C2C00FB799AB2054B1A80BB799AB2034B5A8056
:101C3C0000BF0C37BD4680BC704700BFB00A002007
:101C4C0080B485B000AF154B9B69144A43F0010377
:101C5C009361124B9B6903F00103BB60BB680F4B94
:101C6C00DB690E4A43F08053D3610C4BDB6903F004
:101C7C0080537B607B680A4B5B68FB60FB6823F0DE
:101C8C00E063FB60FB6843F08063FB60044AFB6825
:101C9C00536000BF1437BD4680BC70470010024033
:101CAC000000014080B588B000AF786007F11003E8
:101CBC0000221A605A609A60DA607B681B68154AC9
:101CCC00934223D1144B9B69134A43F48053936181
:101CDC00114B9B6903F48053FB60FB680E4B9B69B3
:101CEC000D4A43F0040393610B4B9B6903F004030F
:101CFC00BB60BB68A0233B6102237B610323FB61B8
:101D0C0007F1100319460548FEF7AEFB00BF20375C
:101D1C00BD4680BD0030014000100240000801406B
:101D2C0080B400AF00BFBD4680BC704780B400AF2C
:101D3C00FEE780B400AFFEE780B400AFFEE780B4EE
:101D4C0000AFFEE780B400AF00BFBD4680BC70475B
:101D5C0080B400AF00BFBD4680BC704780B400AFFC
:101D6C0000BFBD4680BC704780B500AFFEF72EFAB1
:101D7C0000BF80BD80B500AF4FF48050FEF710FD62
:101D8C004FF40050FEF70CFD4FF48040FEF708FDB9
:101D9C0000BF80BD80B400AF154B1B68144A43F0E4
:101DAC0001031360124B5A681149124B13404B60DC
:101DBC000F4B1B680E4A23F0847323F4803313609B
:101DCC000B4B1B680A4A23F480231360084B5B6897
:101DDC00074A23F4FE035360054B4FF41F029A602D
:101DEC00054B4FF000629A6000BFBD4680BC704747
:101DFC00001002400000FFF800ED00E0002103E0BD
:101E0C000B4B5B58435004310A480B4B42189A4217
:101E1C00F6D30A4A02E0002342F8043B084B9A42EC
:101E2C00F9D3FFF7B7FF00F00FF8FFF707FB704788
:101E3C00543B0008000000205404002054040020EF
:101E4C00DC0A0020FEE7000070B50D4E0D4D761B30
:101E5C00B61006D0002455F8043B01349847A6422E
:101E6C00F9D1094E094D00F0D3F8761BB61006D007
:101E7C00002455F8043B01349847A642F9D170BDB3
:101E8C00483B0008483B0008503B0008483B000812
:101E9C00F0B4860746D0541E002A3CD00346CAB282
:101EAC0001E0013C37D303F8012B9D07F9D1032C3A
:101EBC002AD9CDB245EA05250F2C45EA054534D97A
:101ECC00A4F1100222F00F0C03F12007160967444D
:101EDC0003F1100242E9045542E902551032BA42AC
:101EEC00F8D1721C14F00C0F03EB021204F00F0665
:101EFC0013D0331F23F003030433134442F8045B61
:101F0C009342FBD106F003042CB1CAB21C4403F873
:101F1C00012B9C42FBD1F0BC704734461346002C7D
:101F2C00F3D1F8E714460346C1E71A462646E0E724
:101F3C00024B13B1024800F005B8704700000000D6
:101F4C005D1F0008002301461A46184600F01AB817
:101F5C0038B5084B084D5B1B9C1007D0043B1D4447
:101F6C00013C55F804399847002CF9D1BDE83840AC
:101F7C0000F054B8543B0008503B0008704700BFB9
:101F8C00704700BF2DE9F047DFF880A00646DAF86D
:101F9C00000098460F469146FFF7F0FF1A4B1B685E
:101FAC00D3F8484124B365681F2D26DC5EB96B1C41
:101FBC000235DAF80000636044F82570FFF7E0FFA3
:101FCC000020BDE8F087012304EB8501C1F888905F
:101FDC00D4F88821AB401A43022EC4F88821C1F8EA
:101FEC000881E4D1D4F88C211343C4F88C31DEE79A
:101FFC0003F5A674C3F84841D5E7DAF80000FFF7FB
:10200C00BFFF4FF0FF30DCE7443B000850040020DA
:10201C00F8B500BFF8BC08BC9E467047F8B500BFC9
:08202C00F8BC08BC9E46704799
:1020340002030405060708090A0B0C0D0E0F101005
:102044007069657277737A7900000000647275674D
:102054006900000069546F617374657200000000C8
:1020640076312E300000000053656C656374207275
:1020740065636970653A000000000000000000001C
:10208400000000000000000000000000001000102C
:1020940000100010001000100000001000000000EC
:1020A40000280028002800000000000000000000B4
:1020B4000000000000240024007C00240048007C70
:1020C4000048004800000000003800540050003868
:1020D4000014005400540038001000000020005484
:1020E40000580030002800540014000800000000CC
:1020F4000010002800280010003400480048003474
:10210400000000000010001000100000000000009B
:102114000000000000000000000800100020002063
:1021240000200020002000200010000800200010E3
:10213400000800080008000800080008001000203B
:10214400001000380010002800000000000000000B
:10215400000000000000000000100010007C0010CF
:10216400001000000000000000000000000000005B
:10217400000000000000001000100010000000002B
:102184000000000000000038000000000000000013
:10219400000000000000000000000000000000102B
:1021A40000000000000800080010001000100010DB
:1021B40000200020000000000038004400440054C7
:1021C40000440044004400380000000000100030C7
:1021D400005000100010001000100010000000005B
:1021E4000038004400440004000800100020007C73
:1021F400000000000038004400040018000400043B
:1022040000440038000000000008001800280028DE
:102214000048007C0008000800000000007C00402A
:10222400004000780004000400440038000000006E
:102234000038004400400078004400440044003862
:1022440000000000007C00040008001000100020C2
:102254000020002000000000003800440044003842
:1022640000440044004400380000000000380044EA
:1022740000440044003C0004004400380000000016
:10228400000000000010000000000000000000102A
:10229400000000000000000000000010000000002A
:1022A400000000100010001000000000000C0030BE
:1022B40000400030000C000000000000000000009E
:1022C4000000007C0000007C000000000000000012
:1022D4000000000000600018000400180060000006
:1022E4000000000000380044000400080010001042
:1022F400000000100000000000380044004C0054AE
:10230400005C00400040003800000000001000287D
:10231400002800280028007C00440044000000003D
:1023240000780044004400780044004400440078ED
:10233400000000000038004400400040004000401D
:1023440000440038000000000070004800440044CD
:10235400004400440048007000000000007C00407D
:102364000040007C004000400040007C0000000071
:10237400007C0040004000780040004000400040E5
:10238400000000000038004400400040005C0044AD
:102394000044003800000000004400440044007C75
:1023A40000440044004400440000000000380010D1
:1023B4000010001000100010001000380000000091
:1023C4000004000400040004000400040044003875
:1023D4000000000000440048005000600050004825
:1023E400004800440000000000400040004000405D
:1023F400004000400040007C000000000044006CED
:10240400006C0054004400440044004400000000F8
:1024140000440064006400540054004C004C004428
:10242400000000000038004400440044004400441C
:1024340000440038000000000078004400440044D8
:1024440000780040004000400000000000380044D4
:1024540000440044004400440054003800040000D8
:1024640000780044004400440078004800480044D8
:102474000000000000380044004000300008000460
:102484000044003800000000007C00100010001020
:102494000010001000100010000000000044004470
:1024A400004400440044004400440038000000009C
:1024B40000440044004400280028002800100010B4
:1024C4000000000000440044005400540054006C18
:1024D4000028002800000000004400280028001004
:1024E40000100028002800440000000000440044BC
:1024F4000028002800100010001000100000000048
:10250400007C000400080010001000200040007C43
:10251400000000000018001000100010001000104F
:1025240000100010001000180020002000100010FF
:102534000010001000080008000000000030001027
:1025440000100010001000100010001000100030E7
:1025540000100028002800440000000000000000D3
:102564000000000000000000000000000000000067
:1025740000000000000000FE002000100000000029
:102584000000000000000000000000000000000047
:1025940000380044003C0044004C003400000000BB
:1025A40000400040005800640044004400640058A7
:1025B400000000000000000000380044004000401B
:1025C4000044003800000000000400040034004C03
:1025D40000440044004C00340000000000000000EF
:1025E40000380044007C0040004400380000000033
:1025F400000C0010007C00100010001000100010EF
:1026040000000000000000000034004C00440044BE
:10261400004C00340004007800400040005800647E
:102624000044004400440044000000000010000086
:1026340000700010001000100010001000000000D6
:1026440000100000007000100010001000100010B6
:10265400001000E0004000400048005000600050BE
:10266400004800440000000000700010001000103A
:102674000010001000100010000000000000000016
:10268400007800540054005400540054000000002A
:10269400000000000058006400440044004400446A
:1026A4000000000000000000003800440044004422
:1026B40000440038000000000000000000580064DE
:1026C4000044004400640058004000400000000042
:1026D4000034004C00440044004C00340004000466
:1026E400000000000058006400400040004000402A
:1026F4000000000000000000003800440030000822
:102704000044003800000000002000200078002071
:10271400002000200020001800000000000000003D
:102724000044004400440044004C00340000000015
:102734000000000000440044002800280028001085
:102744000000000000000000005400540054006C1D
:1027540000280028000000000000000000440028B9
:1027640000100010002800440000000000000000D9
:1027740000440044002800280010001000100060ED
:1027840000000000007C0008001000200040007CD5
:1027940000000000001800100010001000200020AD
:1027A400001000100010001800100010001000109D
:1027B4000010001000100010001000100030001075
:1027C4000010001000080008001000100010003075
:1027D4000000000000000074004C00000000000035
:1027E40000000000000000000000000000000000E5
:1027F40000000000000000000000000000000000D5
:1028040000000000000000000000000C000C000CA0
:10281400000C000C000C000C000C000C000C000C54
:102824000000000C000C0000000000000000001B71
:10283400001B001B001B001B000000000000000028
:102844000000000000000000000000000000000084
:1028540000008019801980198019C07FC07F8019F9
:102864000033C07FC07F00330033003300330000E7
:10287400000000000000001E003F807580650074A9
:10288400003C001E00078005806580658075003F60
:10289400001E0004000400000000007000D840D8AE
:1028A400C0D880D900730006000C801BC036C066F7
:1028B400C046C00680030000000000000000001EA7
:1028C400003F003300330033001E000CC03CC066E0
:1028D400806380618063C03E801C000000000000B3
:1028E4000000000C000C000C000C000C00000000A8
:1028F40000000000000000000000000000000000D4
:10290400000000008000000100030006000600042F
:10291400000C000C000C000C000C000C0004000661
:102924000006000300018000002000100018000CC5
:10293400000C00040006000600060006000600065F
:102944000004000C000C0018001000200000000C13
:10295400002D003F001E00330000000000000000B6
:102964000000000000000000000000000000000063
:10297400000000000000000C000C000C000CC0FF64
:10298400C0FF000C000C000C000C00000000000054
:102994000000000000000000000000000000000033
:1029A4000000000000000000000000000000000C17
:1029B400000C0004000400080000000000000000F7
:1029C40000000000000000000000001E001E0000C7
:1029D40000000000000000000000000000000000F3
:1029E40000000000000000000000000000000000E3
:1029F400000000000000000C000C000000000000BB
:102A040000000003000300030006000600060006A1
:102A1400000C000C000C000C00180018001800003A
:102A2400000000000000001E003F00338061806150
:102A34008061806D806D8061806180610033003FC2
:102A4400001E00000000000000000006000E001E32
:102A540000360026000600060006000600060006F2
:102A64000006000600060000000000000000001E32
:102A7400003F807380618061800100030006000CC8
:102A8400001800300060807F807F0000000000009C
:102A94000000001C003E006300630003000E000EF3
:102AA40000038001800180618073003F001E0000EC
:102AB4000000000000000006000E000E001E001EB4
:102AC4000016003600360066807F807F0006000610
:102AD40000060000000000000000007F007F00608E
:102AE40000600060006E007F80638001800180616F
:102AF4008073003F001E0000000000000000001E64
:102B0400003F803380610060006E007F80738061CD
:102B1400806180618033003F001E000000000000DF
:102B24000000807F807F8001000300030006000610
:102B3400000C000C000C000800180018001800001D
:102B4400000000000000001E003F8063806180617F
:102B54000021001E003F8061806180618061003F30
:102B6400001E0000000000000000001E003F007373
:102B74008061806180618073803F801D80018061FD
:102B84000073003F001E0000000000000000000071
:102B9400000000000000000C000C00000000000019
:102BA400000000000000000C000C00000000000009
:102BB400000000000000000000000000000C000CF9
:102BC40000000000000000000000000C000C0004E5
:102BD40000040008000000000000000080008003E2
:102BE400000E003800600038000E800380000000F2
:102BF40000000000000000000000000000000000D1
:102C04000000807F807F00000000807F807F0000C4
:102C140000000000000000000000000000000000B0
:102C24000000000000400070001C00078001000745
:102C3400001C0070004000000000000000000000C4
:102C44000000001F803FC071C060C000C00180034D
:102C54000007000E000C000C0000000C000C00002B
:102C6400000000000000001E003F8031807180637E
:102C7400806F806D806D806F806700600032003EE1
:102C8400001C0000000000000000000E000E001BED
:102C9400001B001B001B80318031803F803F80314E
:102CA400C060C060C0600000000000000000007C44
:102CB400007E0063006300630063007E007E0063A7
:102CC400806180618063007F007E0000000000005E
:102CD4000000001E003F80318061006000600060E1
:102CE40000600060006080618031003F001E0000D1
:102CF400000000000000007C007F006380638061AE
:102D04008061806180618061806100630063007E16
:102D1400007C0000000000000000807F807F0060D5
:102D2400006000600060007F007F00600060006061
:102D34000060807F807F0000000000000000807F32
:102D4400807F0060006000600060007F007F0060A2
:102D5400006000600060006000600000000000008F
:102D64000000001E003F8031806100600060006050
:102D740080638063806180618031803F001E000039
:102D840000000000000080618061806180618061DA
:102D94008061807F807F80618061806180618061EB
:102DA40080610000000000000000003F003F000CB4
:102DB400000C000C000C000C000C000C000C000CAF
:102DC400000C003F003F00000000000000008001F4
:102DD40080018001800180018001800180018001E7
:102DE400806180618073003F001E000000000000CD
:102DF4000000C0608061006300660066006C0078BB
:102E0400007C00660066006380618061C060000031
:102E140000000000000000600060006000600060CE
:102E24000060006000600060006000600060807FFF
:102E3400807F0000000000000000C071C071C07BF2
:102E4400C07AC06AC06AC06EC064C060C060C0603E
:102E5400C060C060C060000000000000000080711D
:102E64008071807980798079806D806D806D8065D6
:102E740080678067806780638063000000000000D3
:102E84000000001E003F003380618061806180612A
:102E940080618061806180610033003F001E00001A
:102EA400000000000000007E007F8063806180617C
:102EB40080618063007F007E0060006000600060CD
:102EC40000600000000000000000001E003F00330E
:102ED40080618061806180618061806180658067DC
:102EE4000033803F401E0000000000000000007E10
:102EF400007F8063806180618063007F007E006664
:102F04000063006380618061C06000000000000015
:102F14000000000E001F8031803100300038001E98
:102F240000078003806180618031003F001E000043
:102F3400000000000000C0FFC0FF000C000C000CEB
:102F4400000C000C000C000C000C000C000C000C1D
:102F5400000C0000000000000000806180618061BE
:102F64008061806180618061806180618061806155
:102F74008073003F001E0000000000000000C060DD
:102F8400C060C060803180318031001B001B001B99
:102F9400001B000E000E000E0004000000000000E4
:102FA4000000C0C0C0C0C0C0C0C0C0C0C0CC804C45
:102FB400804C805E8052805280738061806100000A
:102FC400000000000000C0C0806080610033003B4E
:102FD400001E000C000C001E001F003B807180616D
:102FE400C0C00000000000000000C0C0806180611B
:102FF40000330033001E001E000C000C000C000CFB
:10300400000C000C000C0000000000000000803FD9
:10301400803F8001000300030006000C000C001830
:10302400001800300060807F807F000000000000F6
:10303400000F000F000C000C000C000C000C000C26
:10304400000C000C000C000C000C000C000C000C1C
:10305400000F000F0000001800180018000C000CEE
:10306400000C000C00060006000600060003000326
:103074000003000000000000001E001E0006000601
:10308400000600060006000600060006000600060C
:103094000006000600060006001E001E0000000CCC
:1030A400000C001E001200330033806180610000B8
:1030B400000000000000000000000000000000000C
:1030C40000000000000000000000000000000000FC
:1030D40000000000000000000000000000000000EC
:1030E400E0FF0000000000380018000C00000000A1
:1030F40000000000000000000000000000000000CC
:1031040000000000000000000000000000000000BB
:103114000000001F803F80618001801F803F80612C
:103124008063807FC0380000000000000000006061
:10313400006000600060006E007F807380618061C9
:10314400806180618073007F006E000000000000D9
:1031540000000000000000000000001E003F80731B
:1031640080610060006080618073003F001E000089
:103174000000000000008001800180018001801DAA
:10318400803F807380618061806180618073803F53
:10319400801D00000000000000000000000000008E
:1031A4000000001E003F00738061807F807F00600C
:1031B4008071003F001E0000000000000000C007F6
:1031C400C00F000C000C807F807F000C000C000CF2
:1031D400000C000C000C000C000C000000000000AF
:1031E4000000000000000000801D803F80738061AB
:1031F4008061806180618073803F801D8001806375
:10320400007F003E00000060006000600060006F0E
:10321400807F807180618061806180618061806174
:1032240080610000000000000000000600060000AD
:103234000000003E003E00060006000600060006F0
:10324400000600060006000000000000000600065C
:1032540000000000003E003E0006000600060006D6
:10326400000600060006000600060046007E003C3C
:103274000000006000600060006080610063006620
:10328400006C007C0076006300638061C060000015
:10329400000000000000003E003E0006000600069C
:1032A40000060006000600060006000600060006EA
:1032B4000006000000000000000000000000000004
:1032C400000080DDC0FFC0CEC0CCC0CCC0CCC0CC20
:1032D400C0CCC0CCC0CC0000000000000000000046
:1032E400000000000000006F807F807180618061B9
:1032F4008061806180618061806100000000000065
:1033040000000000000000000000001E003F807369
:1033140080618061806180618073003F001E0000D5
:10332400000000000000000000000000006E007FAC
:10333400807380618061806180618073007F006E32
:1033440000600060006000600000000000000000F9
:10335400801D803F807380618061806180618073A3
:10336400803F801D800180018001800100000000F9
:103374000000000000000067803F0039003000308A
:103384000030003000300030003000000000000049
:1033940000000000000000000000001E803F80616B
:1033A4000060007F803F80018061007F001E00007C
:1033B4000000000000000000000800180018007F52
:1033C400007F001800180018001800180018801F4B
:1033D400800F00000000000000000000000000005A
:1033E40000008061806180618061806180618061B2
:1033F4008063807F803D000000000000000000002A
:10340400000000000000C060803180318031001B6A
:10341400001B001B000E000E000600000000000050
:103424000000000000000000000080DD80DD80DD81
:103434000055005500550077007700220022000057
:103444000000000000000000000000000000806197
:1034540000330033001E000C000C001E0033003348
:103464008061000000000000000000000000000077
:1034740080618061803100330033001B001B001B1E
:10348400000E000E000E001C007C00700000000006
:10349400000000000000C07FC07F80010003000620
:1034A400000C00180030C07FC07F00000000000046
:1034B4008003800700060006000600060006000ED2
:1034C400001C001C000E0006000600060006000694
:1034D40080078003000600060006000600060006BA
:1034E40000060006000600060006000600060006A8
:1034F40000060006000600060038003C000C000C24
:10350400000C000C000C000E00070007000E000C5D
:10351400000C000C000C000C003C00380000000003
:10352400000000000000000000008038807F004799
:103534000000000000000000000000000000000087
:103544000000000000000000000000000000000077
:1035540000200020002000200020000000200000A7
:103564000050005000500000000000000000000067
:103574000050005000F8005000F8005000500000C7
:103584000020007800A00070002800F00020000057
:1035940000C000C80010002000400098001800007F
:1035A400004000A000A0004000A8009000680000B7
:1035B4000030003000200040000000000000000047
:1035C40000100020004000400040002000100000D7
:1035D40000400020001000100010002000400000F7
:1035E400002000A8007000F8007000A8002000006F
:1035F40000000020002000F800200020000000004F
:103604000000000000000000003000300020000036
:1036140000000000000000F80000000000000000AE
:103624000000000000000000000000300030000036
:10363400000000080010002000400080000000008E
:1036440000700088009800A800C80088007000007E
:1036540000200060002000200020002000700000F6
:1036640000700088000800700080008000F80000EE
:1036740000F8000800100030000800880070000006
:10368400001000300050009000F8001000100000FE
:1036940000F8008000F000080008008800700000B6
:1036A40000380040008000F00088008800700000AE
:1036B40000F800080008001000200040008000000E
:1036C4000070008800880070008800880070000086
:1036D40000700088008800780008001000E00000F6
:1036E4000000000000200000002000000000000096
:1036F4000000000000200000002000200040000026
:103704000008001000200040002000100008000005
:103714000000000000F8000000F8000000000000B5
:1037240000400020001000080010002000400000AD
:103734000070008800080030002000000020000015
:103744000070008800A800B800B000800078000075
:10375400002000500088008800F8008800880000DD
:1037640000F00088008800F00088008800F0000065
:1037740000700088008000800080008800700000D5
:1037840000F00088008800880088008800F00000AD
:1037940000F80080008000F00080008000F8000045
:1037A40000F80080008000F00080008000800000AD
:1037B400007800880080008000980088007800006D
:1037C40000880088008800F80088008800880000CD
:1037D4000070002000200020002000200070000065
:1037E400003800100010001000100090006000006D
:1037F4000088009000A000C000A000900088000095
:1038040000800080008000800080008000F80000BC
:10381400008800D800A800A800A80088008800003C
:103824000088008800C800A800980088008800006C
:1038340000700088008800880088008800700000FC
:1038440000F00088008800F0008000800080000004
:10385400007000880088008800A8009000680000BC
:1038640000F00088008800F000A0009000880000AC
:10387400007000880080007000080088007000005C
:1038840000F800A8002000200020002000200000F4
:103894000088008800880088008800880070000084
:1038A40000880088008800880088005000200000FC
:1038B40000880088008800A800A800A80050000024
:1038C4000088008800500020005000880088000014
:1038D4000088008800500020002000200020000004
:1038E40000F80008001000700040008000F800009C
:1038F4000078004000400040004000400078000094
:1039040000000080004000200010000800000000BB
:10391400007800080008000800080008007800008B
:10392400002000500088000000000000000000009B
:1039340000000000000000000000000000F800008B
:103944000060006000200010000000000000000083
:10395400000000000060001000700090007800007B
:103964000080008000B000C8008800C800B00000DB
:1039740000000000007000880080008800700000D3
:10398400000800080068009800880098006800009B
:10399400000000000070008800F800800070000043
:1039A40000100028002000700020002000200000EB
:1039B40000000000007000980098006800080000F3
:1039C4000080008000B000C80088008800880000E3
:1039D4000020000000600020002000200070000093
:1039E40000100000001000100010009000600000A3
:1039F40000800080009000A000C000A000900000A3
:103A04000060002000200020002000200070000042
:103A14000000000000D000A800A800A800A8000032
:103A24000000000000B000C8008800880088000082
:103A3400000000000070008800880088007000000A
:103A44000000000000B000C800C800B00080000002
:103A5400000000000068009800980068000800005A
:103A64000000000000B000C800800080008000005A
:103A740000000000007800800070000800F00000E2
:103A84000020002000F80020002000280010000082
:103A9400000000000088008800880098006800008A
:103AA400000000000088008800880050002000000A
:103AB400000000000088008800A800A80050000052
:103AC4000000000000880050002000500088000022
:103AD40000000000008800880078000800880000CA
:103AE4000000000000F800100020004000F8000072
:103AF40000100020002000400020002000100000E2
:103B040000200020002000000020002000200000F1
:103B14000040002000200010002000200040000091
:103B2400004000A800100000000000000000000099
:103B34000000000000000000010203040607080959
:043B44002800002035
:083B48003D1F000831010008D7
:043B50000D0100085B
:103B540010000000010000000608000044350008C1
:103B6400070A00007C2000080B120000E827000868
:103B74000024F400000000000000000014030020F2
:103B84007C030020E403002000000000000000008B
:103B94000000000000000000000000000000000021
:103BA4000000000000000000000000000000000011
:103BB4000000000000000000000000000000000001
:103BC40000000000000000000000000000000000F1
:103BD40000000000000000000000000000000000E1
:103BE40000000000000000000000000000000000D1
:103BF40000000000000000000000000000000000C1
:103C040000000000000000000000000000000000B0
:103C140000000000000000000000000000000000A0
:103C240001000000000000000E33CDAB34126DE63D
:103C3400ECDE05000B0000000000000000000000A6
:103C44000000000000000000000000000000000070
:103C54000000000000000000000000000000000060
:103C64000000000000000000000000000000000050
:103C74000000000000000000000000000000000040
:043FA400B80A002037
:0400000508001E09C8
:00000001FF
