:100000000C94E3000C940B010C940B010C940B0169
:100010000C940B010C940B010C940B010C940B0130
:100020000C940B010C940B010C94AC020C941E0369
:100030000C940B010C940B010C940B010C940B0110
:100040000C940B010C940B010C940B010C940B0100
:100050000C940B010C940B010C940B010C94960660
:100060000C940B010C940B010C940B010C940B01E0
:100070000C940B010C940B010C940B010C940B01D0
:100080000C940B010C940B010C940B010C940B01C0
:100090000C940B010C940B010C940B010C940B01B0
:1000A0000C940B010C940B010C940B0187058A0531
:1000B00079057D058105AB05AB05AB058E05920580
:1000C00096059C05A005AB05A605000000020009E9
:1000D0000F0000030401000C0000000000000000FD
:1000E000000000000000000000080B0002020201F6
:1000F00000090400000102020000052400100105AF
:1001000024010101042402060524060001070581DB
:100110000310004009040100020A00000007050264
:100120000240000007058302400000040309041296
:10013000010002EF02014041233680000101020369
:100140000141726475696E6F204C4C4300417264CA
:1001500075696E6F204C656F6E6172646F00070683
:1001600005040100080A0B0C0D0900000000250021
:1001700028002B002E003100000000002400270082
:100180002A002D00300004040404040304050202C4
:100190000202040302020202060606060606040420
:1001A00002020204040408020110408040102040B2
:1001B000804080080204018040201002011080105D
:1001C000204040208A0E11241FBECFEFDAE0DEBFB0
:1001D000CDBF11E0A0E0B1E0E2E6F3E202C005909D
:1001E0000D92A636B107D9F722E0A6E6B1E001C02C
:1001F0001D92AB37B207E1F710E0C3EED0E004C0C8
:100200002197FE010E94680FC23ED107C9F70E94E4
:10021000300D0C94AF110C940000CF93DF931F921C
:10022000CDB7DEB76983DC01ED91FC910280F381EB
:10023000E02D41E050E0BE016F5F7F4F09950F90C8
:10024000DF91CF91089583E08093E9008091F200DF
:10025000882319F08AE38093E8000895FC018485DF
:10026000958597FD0BC09FB7F89482E08093E900D5
:100270008091F2009FBF90E0019608959FB7F89497
:1002800082E08093E9008091F2009FBF90E00895A2
:10029000409171015091720120916F013091700174
:1002A00042175307B4F49091E8009570E1F39091F0
:1002B000E80092FD19C08093F10080917101909146
:1002C000720101968F739927892B19F48EEF809311
:1002D000E8008091710190917201019690937201F2
:1002E0008093710181E0089580E00895DF92EF929C
:1002F000FF920F931F93CF93DF93D82EF92EE42E06
:10030000062F10E0C8010196880F0E94480183E083
:100310000E944801CD2DDF2D0C0F1D1FC017D107E6
:1003200089F0E7FE03C0FE01849101C088810E942C
:100330004801F82E80E00E9448018F21219681110A
:10034000EDCF01C081E0DF91CF911F910F91FF9020
:10035000EF90DF900895DF92EF92FF920F931F933B
:10036000CF93DF93D82E8A017B01E40EF51EEB01BB
:10037000CE15DF0571F0D7FE03C0FE01849101C0E8
:1003800088810E94480121968111F2CF8FEF9FEF63
:1003900001C0C801DF91CF911F910F91FF90EF90A5
:1003A000DF900895615030F02091F100FC0120832E
:1003B0000196F8CF289884E68093770108953FB797
:1003C000F89480916B0190916C01A0916D01B091B6
:1003D0006E0126B5A89B05C02F3F19F00196A11DFF
:1003E000B11D3FBFBA2FA92F982F8827820F911DCB
:1003F000A11DB11DBC01CD0142E0660F771F881F12
:10040000991F4A95D1F70895CF92DF92EF92FF920C
:100410000F931F93CF93DF936C017A018B01C0E0A0
:10042000D0E0CE15DF0581F0D8016D918D01D601A8
:10043000ED91FC910190F081E02DC6010995892B89
:1004400011F02196EECF7E01C701DF91CF911F9170
:100450000F91FF90EF90DF90CF900895089580E086
:1004600090E008950E945E0B90E008950F931F9313
:10047000CF93DF931F92CDB7DEB78C01FC0184854B
:10048000958597FF0EC0CE0101960E94300B019713
:1004900019F4898190E002C08FEF9FEFF8019587F2
:1004A0008487F801848595850F90DF91CF911F9106
:1004B0000F910895CF93DF931F92CDB7DEB7FC0164
:1004C0008485958597FD05C02FEF3FEF35872487FD
:1004D0000BC0CE0101960E94300B019719F489815F
:1004E00090E002C08FEF9FEF0F90DF91CF910895C2
:1004F0000F931F93CF93DF931F92CDB7DEB782E0A8
:10050000898342E450E069EE70E080E80E94AB012C
:100510000E946F0BDC0112960D911C91139701152F
:10052000110589F0D801ED91FC910280F381E02D55
:10053000BE016F5F7F4FC801099597FD04C0F801A8
:1005400000851185ECCF89810F90DF91CF911F91AC
:100550000F9108950E94AA111F920F920FB60F9249
:1005600011248F939F938091E1009091E100937FFC
:100570009093E10083FF0FC01092E90091E0909307
:10058000EB001092EC0092E39093ED001092780152
:1005900098E09093F00082FF20C093E09093E900F0
:1005A0009091F200992319F09AE39093E8009091CA
:1005B0007501992339F090917501915090937501CF
:1005C000992389F190917701992339F090917701DE
:1005D000915090937701992341F184FF10C080914D
:1005E000E2008E7E81608093E2008091E1008F7E48
:1005F0008093E100809176018E7E806111C080FF42
:1006000016C08091E2008E7E80618093E20080912E
:10061000E1008E7E8093E100809176018E7E816084
:100620008093760104C05D9ACDCF289AD6CF9F9152
:100630008F910F900FBE0F901F9018951F920F92E1
:100640000FB60F921124CF92DF92EF92FF920F9389
:100650001F932F933F934F935F936F937F938F934A
:100660009F93AF93BF93EF93FF93CF93DF93CDB758
:10067000DEB76C97DEBFCDBF1092E9008091E80035
:1006800083FFFBC168E0CE0145960E94D20182EF54
:100690008093E8008D8987FF05C09091E80090FF66
:1006A000FCCF03C09EEF9093E800982F907609F05E
:1006B000C6C09E894F89588D2F89F88C91110CC026
:1006C000803829F4809174018093F10002C0109267
:1006D000F1001092F10045C1913051F4811141C1F6
:1006E0004130510509F03DC1809174018D7F0BC0EF
:1006F000933061F4811135C14130510509F031C1A8
:10070000809174018260809374012BC1953049F40B
:100710008091E80080FFFCCF822F80688093E30007
:1007200020C1963009F05EC00B8D1C8D22E0109226
:10073000E9001092720110927101F21232C010920F
:10074000700110926F010E94780299E0BE016F5F04
:100750007F4FDB01E92F1D92EA95E9F79983FA8231
:1007600091E09E8390EA98879AEF99872091710192
:1007700030917201275F3F4F3C832B838D83109212
:10078000E9001092720110927101109370010093B0
:100790006F0149E050E080E00E94AB010E947802C6
:1007A000E0C01093700100936F010E946F0BDC0199
:1007B00012960D911C9113970115110509F4BBC0F8
:1007C000D801ED91FC910480F581E02DBE016B5EB6
:1007D0007F4FC8010995009709F0C7C0F80100854F
:1007E0001185EACF973009F445C1983021F481E0B2
:1007F0008093F100B6C0993009F0B3C0837009F05E
:1008000039C1E6E2F1E081E031E096E32081211197
:1008100009C08EE78093EA001092EA008F898093E6
:1008200078019FC08093E9003093EB0021912093E1
:10083000EC009093ED008F5F873041F7EACF8B8D0E
:100840009C8D1092E90010927201109271019093A8
:10085000700180936F01898D811153C08E899D89AC
:10086000913A49F4813209F005C147E050E064E073
:1008700071E080E0BBC0913209F0FCC0833269F4C2
:100880008F89988DA0E0B0E08093000190930101E2
:10089000A0930201B093030164C0803269F4809197
:1008A000E80082FFFCCF67E084E091E00E94D20183
:1008B0008BEF8093E80055C0823209F052C08F89D7
:1008C00080930B01EEEFFFE7859194918B3F9C4D58
:1008D00019F0E0E0F8E002C0EEEFFAE080910401E8
:1008E00090910501A0910601B0910701803B9440D1
:1008F000A105B10509F09EC080910B0180FF79C070
:1009000099C00E946F0BFC01028113810115110532
:1009100009F4B0C0D801ED91FC910190F081E02D77
:10092000BE016B5E7F4FC801099581111AC0F801A5
:1009300000851185EBCFF1E0FF1609F44EC0F3E01E
:10094000FF1298C08F89882309F44AC0823089F445
:1009500040E860E18DE491E00E947601882309F48B
:1009600089C08EEF8093E80088C018161906CCF372
:1009700081C0813029F440E86BE081E491E0ECCF64
:10098000833009F077C00E946F0BDC011296ED9066
:10099000FC9013978E010F5F1F4F6801E114F10463
:1009A00079F0D701ED91FC910680F781E02DB80137
:1009B000C7010995080F111DF701E084F184EECFFE
:1009C000D8011C92F60101900020E9F73197BF0190
:1009D0006C197D0940E0C601BFCF6FE271E002C033
:1009E0006BE271E0FB01449150E080E80E94AB01B2
:1009F000B8CFEE3F2AE0F20751F08081918187372E
:100A0000A7E79A0721F09093FF0A8093FE0A87E7F1
:100A100097E79183808380916000809373019BE0CE
:100A200088E10FB6F894A895809360000FBE90936C
:100A3000600097CF808191818737974709F091CFE8
:100A4000A895809160008861809360008091730117
:100A500080936000EE3FBAE0FB0739F08091FE0A18
:100A60009091FF0A918380837CCF1092FF0A1092AD
:100A7000FE0A77CF81E28093EB006C960FB6F89474
:100A8000DEBF0FBECDBFDF91CF91FF91EF91BF9140
:100A9000AF919F918F917F916F915F914F913F9116
:100AA0002F911F910F91FF90EF90DF90CF900F90BB
:100AB0000FBE0F901F901895362F90E0FC01E65363
:100AC000FF4F4491FC01EB55FE4F2491FC01EA5786
:100AD000FE4F8491882309F452C04423E1F150E091
:100AE000FA013197EF30F105B0F5EA5AFF4F0C9457
:100AF000680F909180009F7707C0909180009F7D44
:100B000003C090918000977F9093800024C094B59B
:100B10009F7702C094B59F7D94BD1DC090919000B9
:100B20009F7707C0909190009F7D03C090919000A7
:100B3000977F909390000FC09091C0009F7703C063
:100B40009091C0009F7D9093C00005C09091C2001D
:100B5000977F9093C200E82FF0E0EE0FFF1FE65959
:100B6000FE4FA591B4919FB7F894311104C08C91B8
:100B70002095282302C0EC912E2B2C939FBF089523
:100B8000CF93DF93EC0160E08E810E945C0561E011
:100B90008E810E945C0560E08E810E945C058BE87E
:100BA00091E00197F1F7DF91CF9108958F929F9295
:100BB000AF92BF92CF92DF92EF92FF926B017C01D6
:100BC0000E94DF014B015C01C114D104E104F10476
:100BD000F1F00E94DF01DC01CB0188199909AA0913
:100BE000BB09883E9340A105B10570F321E0C21A0C
:100BF000D108E108F10888EE880E83E0981EA11C58
:100C0000B11CC114D104E104F10419F7DDCFFF9048
:100C1000EF90DF90CF90BF90AF909F908F9008950E
:100C20008F929F92AF92BF92CF92DF92EF92FF92FC
:100C30000F931F93CF93DF936C017B018A01809107
:100C40000B01882309F45CC080917801882309F4A2
:100C500057C08091760180FF05C08091E0008260DE
:100C60008093E000E801B12C8AEFA82E93E0892E52
:100C70002AE3922E209711F4BB20D9F10E945E0B3B
:100C800081110AC0AA94AA20D9F161E070E080E045
:100C900090E00E94D605EECF282F30E0C217D30790
:100CA0000CF48C2F9FB7F8948092E9002091E80013
:100CB00025FF1DC0282F30E0C21BD30BF701815048
:100CC00020F041914093F100FACFE20EF31EBB20D9
:100CD00019F09092E8000AC08091E80085FD07C0F5
:100CE0009092E800BB24B394209709F0B12C9FBFE9
:100CF000C1CF5D9884E6809375011016110644F00B
:100D000081E090E0F6019383828380E090E001C06F
:100D1000C801DF91CF911F910F91FF90EF90DF906D
:100D2000CF90BF90AF909F908F9008951F920F9299
:100D30000FB60F9211242F933F938F939F93AF93EE
:100D4000BF938091670190916801A0916901B09172
:100D50006A013091660123E0230F2D3720F40196BC
:100D6000A11DB11D05C026E8230F0296A11DB11DCE
:100D7000209366018093670190936801A0936901B5
:100D8000B0936A0180916B0190916C01A0916D010B
:100D9000B0916E010196A11DB11D80936B019093DE
:100DA0006C01A0936D01B0936E01BF91AF919F91C3
:100DB0008F913F912F910F900FBE0F901F9018951C
:100DC000DC01ED91FC910190F081E02D0994CF922E
:100DD000DF92EF92FF920F931F93CF93DF936C01FB
:100DE0007C0187E0E80EF11CC0E0D0E0062F10E0A7
:100DF000B8010C2E02C0759567950A94E2F76170F0
:100E0000F70181917F010E945C052196C430D105D4
:100E100079F7C601DF91CF911F910F91FF90EF906D
:100E2000DF90CF900C94C005CF92DF92EF92FF92AB
:100E30000F931F93CF93DF93EC01F62E642F8C81D9
:100E40000E945C058D818F3F19F060E00E945C0577
:100E50008F850F2D10E084FF25C06E0187E0C80E3E
:100E6000D11CE12CF12CB8010E2C02C075956795B0
:100E70000A94E2F76170F60181916F010E945C05AE
:100E8000FFEFEF1AFF0A88E0E816F10461F7CE01E0
:100E9000DF91CF911F910F91FF90EF90DF90CF9056
:100EA0000C94C005B80184E0759567958A95E1F7C3
:100EB000CE010E94E7066F2DCE01DF91CF911F91E9
:100EC0000F91FF90EF90DF90CF900C94E70641E0F8
:100ED0000E94140781E090E0089540E00C9414070C
:100EE00061E00E946D078BE39FE10197F1F70895A0
:100EF0002F923F924F925F926F927F928F929F922A
:100F0000AF92BF92CF92DF92EF92FF920F931F9317
:100F1000CF93DF93CDB7DEB72A970FB6F894DEBF35
:100F20000FBECDBF2DB63EB68091890190918A014A
:100F30000E947007809124018823E9F01092240117
:100F40004CE151E06FE08091890190918A010E940B
:100F5000080D44E151E06EE08091890190918A0191
:100F60000E94080D4CE051E06DE080918901909164
:100F70008A010E94080D0091890110918A01E09177
:100F8000A801F0E0EE0FFF1FE557FE4F8080918033
:100F9000D4015A96BC905A9758968C91BB2011F068
:100FA0008B1508F4B82EF401A18C2B2D30E0AB1476
:100FB00068F0A394AB18B9016A0D711D482F50E079
:100FC0004617570724F4A82EAB1801C0A12C5A2CA1
:100FD000A9014A0D511D5A874987252D2A19852DAA
:100FE00090E0A985BA858A179B070CF0ECC1F40143
:100FF000418C308D880F991FB31630F4E80FF91F1C
:101000000190F081E02D2083F401E80FF91FC080EA
:10101000D180D6014C9111966C91C8010E94830B2E
:10102000F601B196FC83EB8376019601265F3F4F74
:1010300038872F83AB81BC818D91BC83AB83813496
:1010400009F4BAC008F046C0803209F48CC010F52B
:10105000893009F479C080F4813009F498C088306F
:1010600009F070C1D7015796ED91FC9158976081B6
:10107000062E000C770B63C1803109F46CC08131FE
:1010800009F060C1D7015796ED91FC9158974081C6
:1010900051811BC18C3309F450C098F4813209F49A
:1010A0006CC0823309F04EC1F601258130E0D701D2
:1010B0005796ED91FC9158974081518162817381DF
:1010C00030C18D3391F18E3309F03CC1F70167894E
:1010D000708DBBC0893D09F4EEC090F4803D09F4E9
:1010E000C6C038F4863409F459C0893C09F41DC1DE
:1010F00029C1813D09F4C8C0883D09F4D1C022C18D
:10110000803F09F402C138F4883E09F4E1C0893E09
:1011100009F4ECC017C18B3F09F48DC08C3F09F472
:101120008AC08A3F09F00EC194C0D7015796ED914D
:10113000FC9158976081718188C0D7015796ED91D5
:10114000FC91589760818FC0D7015796ED91FC9123
:1011500058974081A3C0D7015796ED91FC915897BD
:1011600060817181ECC0D7015796ED91FC91589741
:101170004081518162817381B5C0D7015796ED914D
:10118000FC9158974081518162817381B9C0D70128
:101190005796ED91FC9158976081D0C0F701A789CF
:1011A000B08DF80180819181FC01208131816C91A9
:1011B000C801F9010995C6C02DB73EB73E832D83FE
:1011C000D70157966D907C905897C3010E943D0FB0
:1011D0009A83898389819A81EDB7FEB7E81BF90B61
:1011E0000FB6F894FEBF0FBEEDBF6DB77EB76F5F51
:1011F0007F4F20E0822F90E049815A818417950724
:1012000054F4F301E80FF91FE491DB01A80FB91FB3
:10121000EC932F5FEFCFE981FA81E60FF71F108281
:10122000C8010E94960B2D813E810FB6F8943EBFF7
:101230000FBE2DBF87C0D7015796ED91FC915897EF
:10124000309709F47FC00995BC01C8010E94960B34
:1012500079C0D7015796ED91FC915897309709F4D2
:1012600071C00995682FC8010E94E0066BC0D701C4
:101270005796ED91FC915897309709F463C0099502
:10128000682F880F770B5BC0D7015796ED91FC91C3
:101290005897309709F456C00995482F50E015C06B
:1012A000D7015796ED91FC915897309709F44AC0B1
:1012B0000995BC0144C0D7015796ED91FC91589710
:1012C000309709F43FC00995AC0160E070E018C0A8
:1012D000D7015796ED91FC915897309799F1099560
:1012E000AB01BC01C8010E94F40B2CC0D70157967A
:1012F000ED91FC915897309729F10995AB01BC010C
:101300002AE0C8010E94AB0B1DC0D7015796ED9192
:10131000FC9158973097B1F00995AB01BC0122E0E0
:1013200030E0C8010E942C0C0DC0D7015796ED91FA
:10133000FC915897309731F00995682F70E0C801FB
:101340000E94260CB2E0EB0EF11CEF81F885EE1541
:10135000FF0509F06FCE541034C0D60114968C915D
:10136000823061F08330C9F0D801ED91FC91813079
:1013700011F121E0D60114962C931DC0F601618174
:1013800061504081C8010E94830BD801ED91FC910E
:101390000190F081E02D6EE012C0F6014281638180
:1013A000C8010E94830BD801ED91FC910190F0815E
:1013B000E02D6DE004C00190F081E02D6FE0C801E8
:1013C000099553940ACE0FB6F8943EBE0FBE2DBEBB
:1013D0002A960FB6F894DEBF0FBECDBFDF91CF9136
:1013E0001F910F91FF90EF90DF90CF90BF90AF9043
:1013F0009F908F907F906F905F904F903F902F9035
:10140000089590E0FC01EB55FE4F2491FC01EA5752
:10141000FE4F8491882399F090E0880F991FFC017A
:10142000E858FE4FA591B491FC01E659FE4F859115
:1014300094918FB7F894EC91E22BEC938FBF0895C1
:10144000CF93DF93823028F090912202986090939E
:101450002202809326021092270280E480932802C1
:1014600080E18093290280E580932A02809117020F
:101470000E94010A809118028F3F11F00E94010A18
:10148000809119020E94010AC3E1D2E09E0123511A
:1014900032408091220284FD03C084E090E002C0CB
:1014A00088E090E021962817390724F48E810E9465
:1014B000010AECCF8BE39DE00197F1F760E08091AA
:1014C00017020E945C0560E0809119020E945C0591
:1014D000809118028F3F19F060E00E945C056091D6
:1014E000220264FD20C063E083E192E00E94E706EF
:1014F000CBE4D6E4CE010197F1F763E083E192E01B
:101500000E94E7062197F1F763E083E192E00E94F1
:10151000E70683E592E00197F1F762E083E192E06C
:101520000E94E7061BC0606283E192E00E946D07A3
:101530008BE496E40197F1F760912202606283E107
:1015400092E00E946D0783E592E00197F1F76091C8
:101550002202606283E192E00E946D0760912202A4
:10156000606283E192E00E946D0784E08093230231
:101570006CE083E192E00E946D0783E192E00E94BB
:10158000700782E08093240266E083E192E0DF91BD
:10159000CF910C946D07CF93DF9362E370E080E00E
:1015A00090E00E94D605EEE5F1E0E49180917B00A9
:1015B000E3FB992790F9C92F90E0D92F95E0CC0F44
:1015C000DD1F9A95E1F78F7DC82BC0937B00E770F4
:1015D000E064E0937C0080917A00806480937A00DC
:1015E00080917A0086FDFCCFC091780080917900CF
:1015F000D0E0D82BD0938801C093870162E370E0DC
:1016000080E090E00E94D605C93E83E0D807A4F4AC
:10161000C233D105A4F0CA3FD105A4F0C23C91E089
:10162000D9079CF0CA3882E0D80794F0C235D3407D
:1016300094F08FEF9FEF11C085E090E00EC080E046
:1016400090E00BC081E090E008C082E090E005C02F
:1016500083E090E002C084E090E0DF91CF910895B4
:1016600020917801211103C08FEF9FEF08955FB79C
:10167000F89422E02093E9002091F20030E0121665
:10168000130614F421E030E0422FFC0184E64150BF
:1016900038F02898809377019091F1009193F7CFDB
:1016A0002115310521F08091F200882319F05FBFE8
:1016B000C90108958BE68093E800F9CF2FB7F8941D
:1016C00083E08093E9009091E800892F807295FF74
:1016D00004C09091F20080E4891B2FBF089580918F
:1016E0007F0181110DC082E080937B0184E08093B3
:1016F0007C0110927E0110927D0181E080937F0138
:101700008BE791E00895FC01443008F043E08389C1
:10171000481710F04FEF480FDF01A40FB11D54968A
:101720009C91690F6068CF010C946D07611571057C
:1017300079F0FB0101900020E9F73197AF01461BDA
:10174000570BDC01ED91FC910280F381E02D0994AF
:1017500080E090E008958F929F92AF92BF92EF92B7
:10176000FF920F931F93CF93DF93CDB7DEB7A1976F
:101770000FB6F894DEBF0FBECDBF7C01FA01CB01DE
:1017800019A2223008F42AE08E010F5D1F4F822E2D
:10179000912CA12CB12CBF01A50194010E94460FF0
:1017A000F901CA01015011096A3014F4605D01C0E9
:1017B000695CD8016C93232B242B252B61F7B8018E
:1017C000C7010E94960BA1960FB6F894DEBF0FBE1C
:1017D000CDBFDF91CF911F910F91FF90EF90BF9000
:1017E000AF909F908F900895CF92DF92EF92FF92EB
:1017F0000F931F93CF93DF9377FF1DC06A017B0187
:10180000EC016DE20E94E0068C0144275527BA01E5
:101810004C195D096E097F092AE0CE010E94AB0BCD
:10182000800F911FDF91CF911F910F91FF90EF904B
:10183000DF90CF9008952AE0DF91CF911F910F9113
:10184000FF90EF90DF90CF900C94AB0BAB01770F34
:10185000660B770B0C94F40B7F928F929F92AF9252
:10186000BF92CF92DF92EF92FF920F931F93CF938D
:10187000DF938C016A017B01722E9A01AB01C701D3
:10188000B6010E94A511882319F069E571E027C00F
:1018900046015701E894B7F82FEF3FEF4FE75FE7B6
:1018A000C501B4010E94A51181110DC02FEF3FEFBA
:1018B0004FE75FE7C501B4010E94DB0F18161CF467
:1018C0006DE571E00CC02FEF3FEF4FE75FE4C7011C
:1018D000B6010E943311181694F461E671E0C80154
:1018E000DF91CF911F910F91FF90EF90DF90CF90FC
:1018F000BF90AF909F908F907F900C94960B2FEF9E
:101900003FEF4FE75FECC701B6010E94DB0F87FD99
:10191000E4CF20E030E0A901C701B6010E94DB0F4F
:1019200087FF0AC06DE2C8010E94E006EC01F7FAE9
:10193000F094F7F8F09402C0C0E0D0E0B12C60E081
:1019400070E080E09FE3B71440F420E030E040E234
:1019500051E40E94E00FB394F6CFA70196010E94D4
:101960006F0F6B017C010E9452104B015C012AE059
:10197000AB01BC01C8010E94AB0BC80FD91F772077
:10198000C1F1C501B4010E9481109B01AC01C701E6
:10199000B6010E946E0F6B017C016EE2C8010E94CD
:1019A000E006C80FD91F20E030E040E251E4C70153
:1019B000B6010E9438114B015C010E9452106B016C
:1019C000E12CF12C2AE0B701A601C8010E94AB0B63
:1019D000C80FD91FC701B6010E9481109B01AC013D
:1019E000C501B4010E946E0F6B017C017A947110E5
:1019F000DACFCE01DF91CF911F910F91FF90EF9041
:101A0000DF90CF90BF90AF909F908F907F90089580
:101A1000EF92FF920F931F93CF93DF938C017A0184
:101A2000677088E0689FB00111246064C8010E945B
:101A30006D07E701A8E0EA0EF11C6991D801ED916C
:101A4000FC910190F081E02DC8010995CE15DF05CC
:101A5000A1F7DF91CF911F910F91FF90EF90089523
:101A6000CF93DF93CDB7DEB728970FB6F894DEBFDC
:101A70000FBECDBF789484B5826084BD84B581608B
:101A800084BD85B5826085BD85B5816085BD809149
:101A90006E00816080936E001092810080918100C1
:101AA00082608093810080918100816080938100B9
:101AB000809180008160809380008091910082609D
:101AC000809391008091910081608093910080913A
:101AD00090008160809390008091C1008460809329
:101AE000C1008091C10082608093C1008091C100DB
:101AF00081608093C1008091C30081608093C300A6
:101B00008091C00082608093C0008091C20081609B
:101B10008093C20080917A00846080937A008091E3
:101B20007A00826080937A0080917A00816080934D
:101B30007A0080917A00806880937A001092780110
:101B400010927401109276018091D7008160809389
:101B5000D70080EA8093D80089B5806189BD89B5B6
:101B6000826089BD09B400FEFDCF61E070E080E0D5
:101B700090E00E94D6058091D8008F7C8061809390
:101B8000D8008091E000807F8093E0008091E100A8
:101B90008E7E8093E1008DE08093E200559A209A3A
:101BA00082E00E94200A8AE00E94010A8AE491E011
:101BB00098878F838BE490E09E838D8382E591E00C
:101BC0009C838B8384E690E09A8389838091F201E1
:101BD0008530A0F4282F30E0F901EE0FFF1FE4510B
:101BE000FE4FAE01495F5F4F508F478BF901E451C3
:101BF000FE4F9EE391A38F5F8093F2018091CB0112
:101C00008530A0F4282F30E0F901EE0FFF1FEB53D1
:101C1000FE4FAE014F5F5F4F508F478BF901EB5383
:101C2000FE4F90E191A38F5F8093CB018091A7013C
:101C30008E3068F4E82FF0E0EE0FFF1FE557FE4FFF
:101C400029EA31E0318320838F5F8093A7010E94CE
:101C5000780700E010E00E94CB0A892B51F58091B3
:101C6000890190918A010E9470078091A70190E0FC
:101C700001972091A801422F50E04817590724F4FA
:101C80002F5F2093A80102C01092A801E091A80143
:101C9000F0E0EE0FFF1FE557FE4F0190F081E02DC1
:101CA000238D2111E6CF0E94780760E08AE00E9430
:101CB0005C050E94CB0A039731F5809189019091D0
:101CC0008A010E9470079091A70191508091A8010C
:101CD000882321F081508093A80102C09093A8012D
:101CE000E091A801F0E0EE0FFF1FE557FE4F0190D5
:101CF000F081E02D838D8111E9CF0E94780761E0AA
:101D00008AE00E945C050115110509F4A4CF0E9428
:101D10000000A1CFCF9310922E0210922D0288EED8
:101D200093E0A0E0B0E080932F0290933002A09364
:101D30003102B093320280E391E090932C028093C1
:101D40002B028FEF9FEF909338028093370210920F
:101D500016021092150282E491E09093140280938F
:101D6000130288E080931702CFEFC093180289E036
:101D70008093190284E080931A0285E080931B020D
:101D800086E080931C0287E080931D0210921E0261
:101D900010921F0210922002109221021092220231
:101DA00081E00E94200A1092EC0181E08093ED0115
:101DB000C093EE011092EF018093F0011092F201B6
:101DC0001092120283E092E02DE032E0D901FC0192
:101DD000119211921D922E173F07D1F7E3EFF1E018
:101DE000119211928E179F07D9F782E08093F1012B
:101DF00081E08093C5018093C6011092C7011092C3
:101E0000C8018093C9011092CB011092EB018CEDB7
:101E100091E026EE31E0D901FC01119211921D9260
:101E20002E173F07D1F7ECECF1E0119211928E17CB
:101E30009F07D9F782E08093CA011092C4012CEE6B
:101E400031E03093AA012093A90125EC31E03093D1
:101E5000AC012093AB018093C1018093C2018093B8
:101E6000C30183E192E090938A01809389011092EB
:101E7000A7011092A801CF910895FC0105900020C0
:101E8000E9F7809590958E0F9F1F0895A1E21A2E75
:101E9000AA1BBB1BFD010DC0AA1FBB1FEE1FFF1F0E
:101EA000A217B307E407F50720F0A21BB30BE40B5E
:101EB000F50B661F771F881F991F1A9469F76095A5
:101EC0007095809590959B01AC01BD01CF0108955F
:101ED000EE0FFF1F0590F491E02D09945058BB2799
:101EE000AA270E94860F0C94F9100E94EB1038F07C
:101EF0000E94F21020F039F49F3F19F426F40C945C
:101F0000E8100EF4E095E7FB0C94E210E92F0E9434
:101F10000A1158F3BA17620773078407950720F070
:101F200079F4A6F50C942C110EF4E0950B2EBA2F33
:101F3000A02D0B01B90190010C01CA01A0011124CF
:101F4000FF27591B99F0593F50F4503E68F11A167B
:101F5000F040A22F232F342F4427585FF3CF46950C
:101F600037952795A795F0405395C9F77EF41F162E
:101F7000BA0B620B730B840BBAF09150A1F0FF0FF8
:101F8000BB1F661F771F881FC2F70EC0BA0F621FE4
:101F9000731F841F48F4879577956795B795F795D4
:101FA0009E3F08F0B0CF9395880F08F09927EE0F69
:101FB0009795879508950E94BE1008F481E00895D2
:101FC0000E94F40F0C94F9100E94F21058F00E9435
:101FD000EB1040F029F45F3F29F00C94E21051110E
:101FE0000C942D110C94E8100E940A1168F39923A7
:101FF000B1F3552391F3951B550BBB27AA27621705
:102000007307840738F09F5F5F4F220F331F441F11
:10201000AA1FA9F335D00E2E3AF0E0E832D0915045
:102020005040E695001CCAF72BD0FE2F29D0660F32
:10203000771F881FBB1F261737074807AB07B0E875
:1020400009F0BB0B802DBF01FF2793585F4F3AF07B
:102050009E3F510578F00C94E2100C942D115F3FD7
:10206000E4F3983ED4F3869577956795B795F79501
:102070009F5FC9F7880F911D9695879597F90895E9
:10208000E1E0660F771F881FBB1F62177307840785
:10209000BA0720F0621B730B840BBA0BEE1F88F794
:1020A000E09508950E94121188F09F5798F0B92F7B
:1020B0009927B751B0F0E1F0660F771F881F991F7D
:1020C0001AF0BA95C9F714C0B13091F00E942C11E2
:1020D000B1E008950C942C11672F782F8827B85FF2
:1020E00039F0B93FCCF3869577956795B395D9F7D5
:1020F0003EF490958095709561957F4F8F4F9F4FDF
:102100000895E89409C097FB3EF4909580957095EA
:1021100061957F4F8F4F9F4F9923A9F0F92F96E933
:10212000BB279395F695879577956795B795F111A8
:10213000F8CFFAF4BB0F11F460FF1BC06F5F7F4F45
:102140008F4F9F4F16C0882311F096E911C0772357
:1021500021F09EE8872F762F05C0662371F096E860
:10216000862F70E060E02AF09A95660F771F881F2F
:10217000DAF7880F9695879597F90895990F0008D3
:10218000550FAA0BE0E8FEEF16161706E807F90749
:10219000C0F012161306E407F50798F0621B730BE4
:1021A000840B950B39F40A2661F0232B242B252B65
:1021B00021F408950A2609F4A140A6958FEF811D08
:1021C000811D089597F99F6780E870E060E00895A9
:1021D0009FEF80EC089500240A941616170618063F
:1021E0000906089500240A9412161306140605061B
:1021F0000895092E0394000C11F4882352F0BB0FAC
:1022000040F4BF2B11F460FF04C06F5F7F4F8F4F0E
:102210009F4F089557FD9058440F551F59F05F3F49
:1022200071F04795880F97FB991F61F09F3F79F0F8
:1022300087950895121613061406551FF2CF46957A
:10224000F1DF08C0161617061806991FF1CF8695FC
:102250007105610508940895E894BB2766277727E0
:10226000CB0197F908950E94BE1008F48FEF0895EE
:102270000E944B110C94F9100E94EB1038F00E9450
:10228000F21020F0952311F00C94E2100C94E81059
:1022900011240C942D110E940A1170F3959FC1F323
:1022A000950F50E0551F629FF001729FBB27F00D04
:1022B000B11D639FAA27F00DB11DAA1F649F662759
:1022C000B00DA11D661F829F2227B00DA11D621FA8
:1022D000739FB00DA11D621F839FA00D611D221F62
:1022E000749F3327A00D611D231F849F600D211D46
:1022F000822F762F6A2F11249F5750409AF0F1F0C9
:1023000088234AF0EE0FFF1FBB1F661F771F881F31
:1023100091505040A9F79E3F510580F00C94E21077
:102320000C942D115F3FE4F3983ED4F38695779596
:102330006795B795F795E7959F5FC1F7FE2B880FD7
:10234000911D9695879597F908950E94BE10880B68
:10235000990B089581E090E0F8940C94AF11F894F3
:02236000FFCFAD
:10236200FFFFFFFF00E100000000000000000E0E72
:102372000E0000000004021F020400000004081FF7
:10238200080400000100C18081000000000000007C
:102392000D011006320223012E015A0236020000FC
:1023A2000000670704022F022E0270727A656E6EB9
:1023B2006100676F72736B69006E616E00696E66B1
:0623C200006F76660000CA
:00000001FF
